{
  "_format": "hh-sol-artifact-1",
  "contractName": "PresaleFactoryNew",
  "sourceName": "contracts/PresaleFactoryNew.sol",
  "abi": [
    {
      "inputs": [],
      "stateMutability": "nonpayable",
      "type": "constructor"
    },
    {
      "anonymous": false,
      "inputs": [
        {
          "indexed": true,
          "internalType": "address",
          "name": "tokenAddress",
          "type": "address"
        }
      ],
      "name": "CreateEvent",
      "type": "event"
    },
    {
      "inputs": [
        {
          "internalType": "address",
          "name": "_sale_token",
          "type": "address"
        },
        {
          "internalType": "uint256",
          "name": "_token_rate",
          "type": "uint256"
        },
        {
          "internalType": "uint256",
          "name": "_raise_min",
          "type": "uint256"
        },
        {
          "internalType": "uint256",
          "name": "_raise_max",
          "type": "uint256"
        },
        {
          "internalType": "uint256",
          "name": "_softcap",
          "type": "uint256"
        },
        {
          "internalType": "uint256",
          "name": "_hardcap",
          "type": "uint256"
        },
        {
          "internalType": "bool",
          "name": "_whitelist",
          "type": "bool"
        },
        {
          "internalType": "uint256",
          "name": "_presale_start",
          "type": "uint256"
        },
        {
          "internalType": "uint256",
          "name": "_presale_end",
          "type": "uint256"
        }
      ],
      "name": "create",
      "outputs": [
        {
          "internalType": "address",
          "name": "",
          "type": "address"
        }
      ],
      "stateMutability": "payable",
      "type": "function"
    },
    {
      "inputs": [],
      "name": "feeTo",
      "outputs": [
        {
          "internalType": "address",
          "name": "",
          "type": "address"
        }
      ],
      "stateMutability": "view",
      "type": "function"
    },
    {
      "inputs": [],
      "name": "flatFee",
      "outputs": [
        {
          "internalType": "uint256",
          "name": "",
          "type": "uint256"
        }
      ],
      "stateMutability": "view",
      "type": "function"
    },
    {
      "inputs": [],
      "name": "getLastLaunchpad",
      "outputs": [
        {
          "internalType": "uint256",
          "name": "",
          "type": "uint256"
        }
      ],
      "stateMutability": "view",
      "type": "function"
    },
    {
      "inputs": [
        {
          "internalType": "uint256",
          "name": "",
          "type": "uint256"
        }
      ],
      "name": "launchpads",
      "outputs": [
        {
          "internalType": "address",
          "name": "",
          "type": "address"
        }
      ],
      "stateMutability": "view",
      "type": "function"
    },
    {
      "inputs": [
        {
          "internalType": "address",
          "name": "feeReceivingAddress",
          "type": "address"
        }
      ],
      "name": "setFeeTo",
      "outputs": [],
      "stateMutability": "nonpayable",
      "type": "function"
    },
    {
      "inputs": [
        {
          "internalType": "uint256",
          "name": "fee",
          "type": "uint256"
        }
      ],
      "name": "setFlatFee",
      "outputs": [],
      "stateMutability": "nonpayable",
      "type": "function"
    }
  ],
  "bytecode": "0x608060405234801561001057600080fd5b5060018054336001600160a01b03199182168117909255662386f26fc100006003556002805490911690911790556136aa8061004d6000396000f3fe608060405260043610620000795760003560e01c8063726336c41162000054578063726336c4146200011e578063836d0ca51462000135578063d9eb59471462000156578063f46901ed146200016e57600080fd5b8063017e7e58146200007e57806323fa495a14620000bd5780635be5f0bc14620000e4575b600080fd5b3480156200008b57600080fd5b50600154620000a0906001600160a01b031681565b6040516001600160a01b0390911681526020015b60405180910390f35b348015620000ca57600080fd5b50620000e2620000dc366004620007e3565b62000193565b005b348015620000f157600080fd5b50620000a062000103366004620007e3565b6004602052600090815260409020546001600160a01b031681565b620000a06200012f3660046200081a565b620001f8565b3480156200014257600080fd5b506000545b604051908152602001620000b4565b3480156200016357600080fd5b506200014760035481565b3480156200017b57600080fd5b50620000e26200018d3660046200089e565b62000569565b6002546001600160a01b03163314620001f35760405162461bcd60e51b815260206004820152601160248201527f596f7520617265206e6f74206f776e657200000000000000000000000000000060448201526064015b60405180910390fd5b600355565b60006003543410156200024e5760405162461bcd60e51b815260206004820152600860248201527f466c6174206665650000000000000000000000000000000000000000000000006044820152606401620001ea565b868810620002c55760405162461bcd60e51b815260206004820152602260248201527f52616973655f6d6178206d757374206d6f7265207468616e2072616973655f6d60448201527f696e0000000000000000000000000000000000000000000000000000000000006064820152608401620001ea565b858511620003165760405162461bcd60e51b815260206004820152601e60248201527f48617264636170206d757374206d6f7265207468616e20736f667463617000006044820152606401620001ea565b62000323600286620008bc565b8610156200039a5760405162461bcd60e51b815260206004820152602d60248201527f536f6674636170206d757374206d6f7265207468616e206f7220657175616c2060448201527f68617264636170202a20353025000000000000000000000000000000000000006064820152608401620001ea565b828211620004115760405162461bcd60e51b815260206004820152602a60248201527f456e6420646174652063616e6e6f74206265206561726c696572207468616e2060448201527f73746172742064617465000000000000000000000000000000000000000000006064820152608401620001ea565b6200041b620005f4565b6000338b8b8b8b8b8b8b8b8b6040516200043590620007d5565b6001600160a01b039a8b1681529990981660208a015260408901969096526060880194909452608087019290925260a086015260c0850152151560e084015261010083015261012082015261014001604051809103906000f080158015620004a1573d6000803e3d6000fd5b506040519091506001600160a01b038216907f4aaccf7bacf6b4605c0e3bac0eb7efd9a9b9291e04764176dd35add748c5274f90600090a26001546003546040516001600160a01b039092169181156108fc0291906000818181858888f1935050505015801562000516573d6000803e3d6000fd5b5062000526600080546001019055565b600080548152600460205260409020805473ffffffffffffffffffffffffffffffffffffffff19166001600160a01b0383161790559a9950505050505050505050565b6002546001600160a01b03163314620005c55760405162461bcd60e51b815260206004820152601160248201527f596f7520617265206e6f74206f776e65720000000000000000000000000000006044820152606401620001ea565b6001805473ffffffffffffffffffffffffffffffffffffffff19166001600160a01b0392909216919091179055565b60006200060d600354346200062590919063ffffffff16565b90508015620006225762000622338262000672565b50565b60006200066983836040518060400160405280601e81526020017f536166654d6174683a207375627472616374696f6e206f766572666c6f77000081525062000796565b90505b92915050565b80471015620006c45760405162461bcd60e51b815260206004820152601d60248201527f416464726573733a20696e73756666696369656e742062616c616e63650000006044820152606401620001ea565b6000826001600160a01b03168260405160006040518083038185875af1925050503d806000811462000713576040519150601f19603f3d011682016040523d82523d6000602084013e62000718565b606091505b5050905080620007915760405162461bcd60e51b815260206004820152603a60248201527f416464726573733a20756e61626c6520746f2073656e642076616c75652c207260448201527f6563697069656e74206d617920686176652072657665727465640000000000006064820152608401620001ea565b505050565b60008184841115620007bd5760405162461bcd60e51b8152600401620001ea9190620008df565b506000620007cc84866200092f565b95945050505050565b612d23806200095283390190565b600060208284031215620007f657600080fd5b5035919050565b80356001600160a01b03811681146200081557600080fd5b919050565b60008060008060008060008060006101208a8c0312156200083a57600080fd5b620008458a620007fd565b985060208a0135975060408a0135965060608a0135955060808a0135945060a08a0135935060c08a013580151581146200087e57600080fd5b8093505060e08a013591506101008a013590509295985092959850929598565b600060208284031215620008b157600080fd5b6200066982620007fd565b600082620008da57634e487b7160e01b600052601260045260246000fd5b500490565b600060208083528351808285015260005b818110156200090e57858101830151858201604001528201620008f0565b506000604082860101526040601f19601f8301168501019250505092915050565b818103818111156200066c57634e487b7160e01b600052601160045260246000fdfe6080604052601a80546001600160a01b03191661dead1790553480156200002557600080fd5b5060405162002d2338038062002d2383398101604081905262000048916200044a565b6001600081905580546001600160a01b0319163317905562000072898989898989898989620000d8565b600180546001600160a01b0319166001600160a01b038c16908117909155604080519182523060208301527fcfea6066a7ff70439f7cfe020aea9709cf4b7cb462225660895dfcc5c38716ae910160405180910390a1505050505050505050506200076e565b6001546001600160a01b031633146200012d5760405162461bcd60e51b81526020600482015260126024820152712737ba10383932b9b0b6329037bbb732b91760711b60448201526064015b60405180910390fd5b60175415620001705760405162461bcd60e51b815260206004820152600e60248201526d105b1c9958591e481cd95d1d195960921b604482015260640162000124565b6001600160a01b038916620001b75760405162461bcd60e51b815260206004820152600c60248201526b5a65726f204164647265737360a01b604482015260640162000124565b600280546001600160a01b0319166001600160a01b038b1617905560038890556004879055600586905560068590556007849055600981905560088290558215156001036200021357600a805460ff191660011790556200021e565b600a805460ff191690555b600c805460ff19169055600254604080516306fdde0360e01b815290516001600160a01b03909216916306fdde03916004808201926000929091908290030181865afa15801562000273573d6000803e3d6000fd5b505050506040513d6000823e601f3d908101601f191682016040526200029d9190810190620004f8565b601390620002ac90826200065c565b50600254604080516395d89b4160e01b815290516001600160a01b03909216916395d89b41916004808201926000929091908290030181865afa158015620002f8573d6000803e3d6000fd5b505050506040513d6000823e601f3d908101601f19168201604052620003229190810190620004f8565b6014906200033190826200065c565b506002546040805163313ce56760e01b815290516001600160a01b039092169163313ce567916004808201926020929091908290030181865afa1580156200037d573d6000803e3d6000fd5b505050506040513d601f19601f82011682018060405250810190620003a3919062000728565b60ff16601655600254604080516318160ddd60e01b815290516001600160a01b03909216916318160ddd916004808201926020929091908290030181865afa158015620003f4573d6000803e3d6000fd5b505050506040513d601f19601f820116820180604052508101906200041a919062000754565b6015555050600160175550505050505050565b80516001600160a01b03811681146200044557600080fd5b919050565b6000806000806000806000806000806101408b8d0312156200046b57600080fd5b620004768b6200042d565b99506200048660208c016200042d565b985060408b0151975060608b0151965060808b0151955060a08b0151945060c08b0151935060e08b01518015158114620004bf57600080fd5b809350506101008b015191506101208b015190509295989b9194979a5092959850565b634e487b7160e01b600052604160045260246000fd5b600060208083850312156200050c57600080fd5b82516001600160401b03808211156200052457600080fd5b818501915085601f8301126200053957600080fd5b8151818111156200054e576200054e620004e2565b604051601f8201601f19908116603f01168101908382118183101715620005795762000579620004e2565b8160405282815288868487010111156200059257600080fd5b600093505b82841015620005b6578484018601518185018701529285019262000597565b600086848301015280965050505050505092915050565b600181811c90821680620005e257607f821691505b6020821081036200060357634e487b7160e01b600052602260045260246000fd5b50919050565b601f8211156200065757600081815260208120601f850160051c81016020861015620006325750805b601f850160051c820191505b8181101562000653578281556001016200063e565b5050505b505050565b81516001600160401b03811115620006785762000678620004e2565b6200069081620006898454620005cd565b8462000609565b602080601f831160018114620006c85760008415620006af5750858301515b600019600386901b1c1916600185901b17855562000653565b600085815260208120601f198616915b82811015620006f957888601518255948401946001909101908401620006d8565b5085821015620007185787850151600019600388901b60f8161c191681555b5050505050600190811b01905550565b6000602082840312156200073b57600080fd5b815160ff811681146200074d57600080fd5b9392505050565b6000602082840312156200076757600080fd5b5051919050565b6125a5806200077e6000396000f3fe6080604052600436106101805760003560e01c8063aabcf445116100d6578063d1e812a31161007f578063d7517caa11610059578063d7517caa14610479578063d845435314610491578063fe8121de146104a657600080fd5b8063d1e812a31461042f578063d2618baf14610444578063d438ff381461045957600080fd5b8063c06c7d49116100b0578063c06c7d49146103ba578063c39e7dbb146103fa578063ca1a961d1461040f57600080fd5b8063aabcf44514610370578063acfb235514610390578063b923b205146103a557600080fd5b806331845f7d116101385780635f87602f116101125780635f87602f146102e257806397a993aa146103025780639d1213a71461034b57600080fd5b806331845f7d1461025557806348146113146102755780634d18b5e21461027d57600080fd5b8063188ec35611610169578063188ec356146101d05780631d9d0db1146101e3578063200d2ed2146101f857600080fd5b8063112f5dad1461018557806313af4035146101ae575b600080fd5b34801561019157600080fd5b5061019b601b5481565b6040519081526020015b60405180910390f35b3480156101ba57600080fd5b506101ce6101c9366004611f8c565b6104bb565b005b3480156101dc57600080fd5b504261019b565b3480156101ef57600080fd5b506101ce61053e565b34801561020457600080fd5b50600d54600e54600f546010546011546012546102269560ff16949392919086565b6040805196151587526020870195909552938501929092526060840152608083015260a082015260c0016101a5565b34801561026157600080fd5b506101ce610270366004611fa7565b610662565b6101ce6106c0565b34801561028957600080fd5b50600254600354600454600554600654600754600854600954600a54600b54600c546102cb9a6001600160a01b0316999897969594939260ff9081169291168b565b6040516101a59b9a99989796959493929190611fd6565b3480156102ee57600080fd5b506101ce6102fd3660046120a7565b610c6d565b34801561030e57600080fd5b5061033661031d366004611f8c565b6018602052600090815260409020805460019091015482565b604080519283526020830191909152016101a5565b34801561035757600080fd5b50610360610d66565b6040516101a594939291906121a4565b34801561037c57600080fd5b506101ce61038b3660046120a7565b610e92565b34801561039c57600080fd5b5061019b610f87565b3480156103b157600080fd5b506101ce611014565b3480156103c657600080fd5b506103ea6103d5366004611f8c565b60196020526000908152604090205460ff1681565b60405190151581526020016101a5565b34801561040657600080fd5b506101ce611072565b34801561041b57600080fd5b506101ce61042a366004611fa7565b611227565b34801561043b57600080fd5b506103ea61127b565b34801561045057600080fd5b506101ce6112a0565b34801561046557600080fd5b506101ce6104743660046121eb565b6112fe565b34801561048557600080fd5b50600854600954610336565b34801561049d57600080fd5b506101ce6116c8565b3480156104b257600080fd5b506101ce611802565b6001546001600160a01b0316331461050f5760405162461bcd60e51b81526020600482015260126024820152712737ba10383932b9b0b6329037bbb732b91760711b60448201526064015b60405180910390fd5b6001805473ffffffffffffffffffffffffffffffffffffffff19166001600160a01b0392909216919091179055565b6002600054036105905760405162461bcd60e51b815260206004820152601f60248201527f5265656e7472616e637947756172643a207265656e7472616e742063616c6c006044820152606401610506565b60026000556001546001600160a01b031633146105e45760405162461bcd60e51b81526020600482015260126024820152712737ba10383932b9b0b6329037bbb732b91760711b6044820152606401610506565b6105ec610f87565b60021461062b5760405162461bcd60e51b815260206004820152600d60248201526c139bdd081cdd58d8d959591959609a1b6044820152606401610506565b604051339081904780156108fc02916000818181858888f19350505050158015610659573d6000803e3d6000fd5b50506001600055565b6001546001600160a01b031633146106b15760405162461bcd60e51b81526020600482015260126024820152712737ba10383932b9b0b6329037bbb732b91760711b6044820152606401610506565b600a805460ff19169055600b55565b6002600054036107125760405162461bcd60e51b815260206004820152601f60248201527f5265656e7472616e637947756172643a207265656e7472616e742063616c6c006044820152606401610506565b60026000556001600a5460ff16600181111561073057610730611fc0565b0361079e573360009081526019602052604090205460ff1615156001146107995760405162461bcd60e51b815260206004820152601860248201527f596f7520617265206e6f742077686974656c69737465642e00000000000000006044820152606401610506565b610814565b600b541561081457600b54421015610814573360009081526019602052604090205460ff1615156001146108145760405162461bcd60e51b815260206004820152601860248201527f596f7520617265206e6f742077686974656c69737465642e00000000000000006044820152606401610506565b61081c610f87565b60011461086b5760405162461bcd60e51b815260206004820152600a60248201527f4e6f7420416374697665000000000000000000000000000000000000000000006044820152606401610506565b6004543410156108bd5760405162461bcd60e51b815260206004820152601660248201527f42616c616e636520697320696e737566666963656e74000000000000000000006044820152606401610506565b60055434111561090f5760405162461bcd60e51b815260206004820152601360248201527f42616c616e636520697320746f6f206d756368000000000000000000000000006044820152606401610506565b33600090815260186020526040812080546005549192349290916109339190611a01565b600e54600754919250600091610949919061227c565b9050808211610958578161095a565b805b915081831115610968578192505b600354600090610979908590611a4c565b905083670de0b6b3a76400000361099d57506b01c6f307be4c4687e6000000610a43565b83671bc16d674ec80000036109bf57506b03e09de2596099e2b0000000610a43565b836729a2241af62c0000036109e157506b05d0ecd38610e6d408000000610a43565b83674563918244f4000003610a0357506b0b4f21d42f59c0d52c000000610a43565b83678ac7230489e8000003610a2557506b19d971e4fe8401e740000000610a43565b8367d02ab486cedc000003610a4357506b3077b58d5d378391980000005b60008111610a935760405162461bcd60e51b815260206004820152600b60248201527f5a45524f20544f4b454e530000000000000000000000000000000000000000006044820152606401610506565b6002546040516370a0823160e01b81523060048201526001600160a01b03909116906370a0823190602401602060405180830381865afa158015610adb573d6000803e3d6000fd5b505050506040513d601f19601f82011682018060405250810190610aff919061228f565b600354600e54610b0f91906122a8565b1115610b5d5760405162461bcd60e51b815260206004820152601260248201527f546f6b656e2072656d61696e206572726f7200000000000000000000000000006044820152606401610506565b8454600003610b7c5760128054906000610b76836122bf565b91905055505b33600090815260186020526040902054610b969085611aea565b33600090815260186020526040902090815560010154610bb69082611aea565b33600090815260186020526040902060010155600e54610bd69085611aea565b600e55600f54610be69082611aea565b600f5534841015610c2957336108fc610bff3487611a01565b6040518115909202916000818181858888f19350505050158015610c27573d6000803e3d6000fd5b505b604080513381523460208201527f6800c78b31b30f29de1de17ff27c5e7c5a990802a69fd1216dd496bafd9c6e01910160405180910390a150506001600055505050565b6001546001600160a01b03163314610cbc5760405162461bcd60e51b81526020600482015260126024820152712737ba10383932b9b0b6329037bbb732b91760711b6044820152606401610506565b6001600a5460ff166001811115610cd557610cd5611fc0565b14610d225760405162461bcd60e51b815260206004820152601160248201527f77686974656c697374206e6f74207365740000000000000000000000000000006044820152606401610506565b60005b8151811015610d6257610d50828281518110610d4357610d436122d8565b6020026020010151611b49565b80610d5a816122bf565b915050610d25565b5050565b601380548190610d75906122ee565b80601f0160208091040260200160405190810160405280929190818152602001828054610da1906122ee565b8015610dee5780601f10610dc357610100808354040283529160200191610dee565b820191906000526020600020905b815481529060010190602001808311610dd157829003601f168201915b505050505090806001018054610e03906122ee565b80601f0160208091040260200160405190810160405280929190818152602001828054610e2f906122ee565b8015610e7c5780601f10610e5157610100808354040283529160200191610e7c565b820191906000526020600020905b815481529060010190602001808311610e5f57829003601f168201915b5050505050908060020154908060030154905084565b6001546001600160a01b03163314610ee15760405162461bcd60e51b81526020600482015260126024820152712737ba10383932b9b0b6329037bbb732b91760711b6044820152606401610506565b6001600a5460ff166001811115610efa57610efa611fc0565b14610f475760405162461bcd60e51b815260206004820152601160248201527f77686974656c697374206e6f74207365740000000000000000000000000000006044820152606401610506565b60005b8151811015610d6257610f75828281518110610f6857610f686122d8565b6020026020010151611bb9565b80610f7f816122bf565b915050610f4a565b600c5460009060ff161515600103610f9f5750600490565b60095442118015610fb35750600654600e54105b15610fbe5750600390565b600754600e5410610fcf5750600290565b60095442118015610fe45750600654600e5410155b15610fef5750600290565b600854421080159061100357506009544211155b1561100e5750600190565b50600090565b6001546001600160a01b031633146110635760405162461bcd60e51b81526020600482015260126024820152712737ba10383932b9b0b6329037bbb732b91760711b6044820152606401610506565b600a805460ff19166001179055565b6002600054036110c45760405162461bcd60e51b815260206004820152601f60248201527f5265656e7472616e637947756172643a207265656e7472616e742063616c6c006044820152606401610506565b60026000556110d1610f87565b6003146111205760405162461bcd60e51b815260206004820152600b60248201527f4e6f74206661696c65642e0000000000000000000000000000000000000000006044820152606401610506565b336000908152601860205260409020805447908110156111825760405162461bcd60e51b815260206004820152601460248201527f4e6f7468696e6720746f2077697468647261772e0000000000000000000000006044820152606401610506565b815460115461119091611aea565b60115581546040513391829181156108fc0291906000818181858888f193505050501580156111c3573d6000803e3d6000fd5b506001546001600160a01b031633036111de576111de611c2c565b6000808455600184018190556040519081527fba8f86526b8f4836c344cbbb8d752a5deb45d8d86c8fdcc0318124656ed1f1699060200160405180910390a15050600160005550565b6001546001600160a01b031633146112765760405162461bcd60e51b81526020600482015260126024820152712737ba10383932b9b0b6329037bbb732b91760711b6044820152606401610506565b601b55565b600080600a5460ff16600181111561129557611295611fc0565b0361100e5750600190565b6001546001600160a01b031633146112ef5760405162461bcd60e51b81526020600482015260126024820152712737ba10383932b9b0b6329037bbb732b91760711b6044820152606401610506565b600c805460ff19166001179055565b6001546001600160a01b0316331461134d5760405162461bcd60e51b81526020600482015260126024820152712737ba10383932b9b0b6329037bbb732b91760711b6044820152606401610506565b6017541561139d5760405162461bcd60e51b815260206004820152600e60248201527f416c7265616479207365747465640000000000000000000000000000000000006044820152606401610506565b6001600160a01b0389166113f35760405162461bcd60e51b815260206004820152600c60248201527f5a65726f204164647265737300000000000000000000000000000000000000006044820152606401610506565b6002805473ffffffffffffffffffffffffffffffffffffffff19166001600160a01b038b16179055600388905560048790556005869055600685905560078490556009819055600882905582151560010361145a57600a805460ff19166001179055611465565b600a805460ff191690555b600c805460ff19169055600254604080517f06fdde0300000000000000000000000000000000000000000000000000000000815290516001600160a01b03909216916306fdde03916004808201926000929091908290030181865afa1580156114d2573d6000803e3d6000fd5b505050506040513d6000823e601f3d908101601f191682016040526114fa9190810190612328565b601390611507908261240b565b50600254604080517f95d89b4100000000000000000000000000000000000000000000000000000000815290516001600160a01b03909216916395d89b41916004808201926000929091908290030181865afa15801561156b573d6000803e3d6000fd5b505050506040513d6000823e601f3d908101601f191682016040526115939190810190612328565b6014906115a0908261240b565b50600254604080517f313ce56700000000000000000000000000000000000000000000000000000000815290516001600160a01b039092169163313ce567916004808201926020929091908290030181865afa158015611604573d6000803e3d6000fd5b505050506040513d601f19601f8201168201806040525081019061162891906124cb565b60ff16601655600254604080517f18160ddd00000000000000000000000000000000000000000000000000000000815290516001600160a01b03909216916318160ddd916004808201926020929091908290030181865afa158015611691573d6000803e3d6000fd5b505050506040513d601f19601f820116820180604052508101906116b5919061228f565b6015555050600160175550505050505050565b6001546001600160a01b031633146117175760405162461bcd60e51b81526020600482015260126024820152712737ba10383932b9b0b6329037bbb732b91760711b6044820152606401610506565b61171f610f87565b60021461175e5760405162461bcd60e51b815260206004820152600d60248201526c139bdd081cdd58d8d959591959609a1b6044820152606401610506565b600f5460035460075461177191906122a8565b10156117bf5760405162461bcd60e51b815260206004820152600f60248201527f4e6f7468696e6720746f206275726e00000000000000000000000000000000006044820152606401610506565b600f54600354600754600092916117d5916122a8565b6117df919061227c565b600254601a549192506117ff916001600160a01b03918216911683611ded565b50565b6002600054036118545760405162461bcd60e51b815260206004820152601f60248201527f5265656e7472616e637947756172643a207265656e7472616e742063616c6c006044820152606401610506565b6002600055611861610f87565b6002146118a05760405162461bcd60e51b815260206004820152600d60248201526c139bdd081cdd58d8d959591959609a1b6044820152606401610506565b601b546009546118b091906124ee565b4210156118ff5760405162461bcd60e51b815260206004820152600d60248201527f546f6b656e204c6f636b65642e000000000000000000000000000000000000006044820152606401610506565b336000908152601860205260408120601054600f5491929161192091611a01565b905081600101548110156119765760405162461bcd60e51b815260206004820152601460248201527f4e6f7468696e6720746f2077697468647261772e0000000000000000000000006044820152606401610506565b6002546001830154611993916001600160a01b0316903390611ded565b60018201546010546119a491611aea565b60105533600090815260186020908152604080832060018082018590559390559184015491519182527f6eb77a5c4ed3153e65b1a8804e82c2ffa0d2b39fd8dba4ae39b6476c7bf65f7e910160405180910390a150506001600055565b6000611a4383836040518060400160405280601e81526020017f536166654d6174683a207375627472616374696f6e206f766572666c6f770000815250611f36565b90505b92915050565b600082600003611a5e57506000611a46565b6000611a6a83856122a8565b905082611a778583612501565b14611a435760405162461bcd60e51b815260206004820152602160248201527f536166654d6174683a206d756c7469706c69636174696f6e206f766572666c6f60448201527f77000000000000000000000000000000000000000000000000000000000000006064820152608401610506565b600080611af783856124ee565b905083811015611a435760405162461bcd60e51b815260206004820152601b60248201527f536166654d6174683a206164646974696f6e206f766572666c6f7700000000006044820152606401610506565b6001546001600160a01b03163314611b985760405162461bcd60e51b81526020600482015260126024820152712737ba10383932b9b0b6329037bbb732b91760711b6044820152606401610506565b6001600160a01b03166000908152601960205260409020805460ff19169055565b6001546001600160a01b03163314611c085760405162461bcd60e51b81526020600482015260126024820152712737ba10383932b9b0b6329037bbb732b91760711b6044820152606401610506565b6001600160a01b03166000908152601960205260409020805460ff19166001179055565b6001546001600160a01b03163314611c7b5760405162461bcd60e51b81526020600482015260126024820152712737ba10383932b9b0b6329037bbb732b91760711b6044820152606401610506565b611c83610f87565b600314611cd25760405162461bcd60e51b815260206004820152601360248201527f4f6e6c79206661696c6564207374617475732e000000000000000000000000006044820152606401610506565b6002546001546040516370a0823160e01b8152306004820152611d4e926001600160a01b0390811692169082906370a0823190602401602060405180830381865afa158015611d25573d6000803e3d6000fd5b505050506040513d601f19601f82011682018060405250810190611d49919061228f565b611ded565b6002546040516370a0823160e01b81523060048201527fba8f86526b8f4836c344cbbb8d752a5deb45d8d86c8fdcc0318124656ed1f169916001600160a01b0316906370a0823190602401602060405180830381865afa158015611db6573d6000803e3d6000fd5b505050506040513d601f19601f82011682018060405250810190611dda919061228f565b60405190815260200160405180910390a1565b604080516001600160a01b038481166024830152604480830185905283518084039091018152606490920183526020820180517bffffffffffffffffffffffffffffffffffffffffffffffffffffffff167fa9059cbb000000000000000000000000000000000000000000000000000000001790529151600092839290871691611e779190612523565b6000604051808303816000865af19150503d8060008114611eb4576040519150601f19603f3d011682016040523d82523d6000602084013e611eb9565b606091505b5091509150818015611ee3575080511580611ee3575080806020019051810190611ee3919061253f565b611f2f5760405162461bcd60e51b815260206004820152601f60248201527f5472616e7366657248656c7065723a205452414e534645525f4641494c4544006044820152606401610506565b5050505050565b60008184841115611f5a5760405162461bcd60e51b8152600401610506919061255c565b506000611f67848661227c565b95945050505050565b80356001600160a01b0381168114611f8757600080fd5b919050565b600060208284031215611f9e57600080fd5b611a4382611f70565b600060208284031215611fb957600080fd5b5035919050565b634e487b7160e01b600052602160045260246000fd5b6000610160820190506001600160a01b038d1682528b60208301528a60408301528960608301528860808301528760a08301528660c08301528560e08301526002851061203357634e487b7160e01b600052602160045260246000fd5b846101008301528361012083015261205061014083018415159052565b9c9b505050505050505050505050565b634e487b7160e01b600052604160045260246000fd5b604051601f8201601f1916810167ffffffffffffffff8111828210171561209f5761209f612060565b604052919050565b600060208083850312156120ba57600080fd5b823567ffffffffffffffff808211156120d257600080fd5b818501915085601f8301126120e657600080fd5b8135818111156120f8576120f8612060565b8060051b9150612109848301612076565b818152918301840191848101908884111561212357600080fd5b938501935b838510156121485761213985611f70565b82529385019390850190612128565b98975050505050505050565b60005b8381101561216f578181015183820152602001612157565b50506000910152565b60008151808452612190816020860160208601612154565b601f01601f19169290920160200192915050565b6080815260006121b76080830187612178565b82810360208401526121c98187612178565b604084019590955250506060015292915050565b80151581146117ff57600080fd5b60008060008060008060008060006101208a8c03121561220a57600080fd5b6122138a611f70565b985060208a0135975060408a0135965060608a0135955060808a0135945060a08a0135935060c08a0135612246816121dd565b8093505060e08a013591506101008a013590509295985092959850929598565b634e487b7160e01b600052601160045260246000fd5b81810381811115611a4657611a46612266565b6000602082840312156122a157600080fd5b5051919050565b8082028115828204841417611a4657611a46612266565b6000600182016122d1576122d1612266565b5060010190565b634e487b7160e01b600052603260045260246000fd5b600181811c9082168061230257607f821691505b60208210810361232257634e487b7160e01b600052602260045260246000fd5b50919050565b60006020828403121561233a57600080fd5b815167ffffffffffffffff8082111561235257600080fd5b818401915084601f83011261236657600080fd5b81518181111561237857612378612060565b61238b601f8201601f1916602001612076565b91508082528560208285010111156123a257600080fd5b6123b3816020840160208601612154565b50949350505050565b601f82111561240657600081815260208120601f850160051c810160208610156123e35750805b601f850160051c820191505b81811015612402578281556001016123ef565b5050505b505050565b815167ffffffffffffffff81111561242557612425612060565b6124398161243384546122ee565b846123bc565b602080601f83116001811461246e57600084156124565750858301515b600019600386901b1c1916600185901b178555612402565b600085815260208120601f198616915b8281101561249d5788860151825594840194600190910190840161247e565b50858210156124bb5787850151600019600388901b60f8161c191681555b5050505050600190811b01905550565b6000602082840312156124dd57600080fd5b815160ff81168114611a4357600080fd5b80820180821115611a4657611a46612266565b60008261251e57634e487b7160e01b600052601260045260246000fd5b500490565b60008251612535818460208701612154565b9190910192915050565b60006020828403121561255157600080fd5b8151611a43816121dd565b602081526000611a43602083018461217856fea2646970667358221220a69ff7017a6402eb58e7c226a4b9ae56891af336dc8f0aec8132497592416d9564736f6c63430008110033a26469706673582212206856296541f1f97d48da376f877f1a97b1b1006acf411789dae8ca4eb9de350364736f6c63430008110033",
  "linkReferences": {},
  "deployedLinkReferences": {}
}