{
  "_format": "hh-sol-artifact-1",
  "contractName": "PresaleNew",
  "sourceName": "contracts/PresaleNew.sol",
  "abi": [
    {
      "inputs": [
        {
          "internalType": "address",
          "name": "owner_",
          "type": "address"
        },
        {
          "internalType": "address",
          "name": "_sale_token",
          "type": "address"
        },
        {
          "internalType": "uint256",
          "name": "_token_rate",
          "type": "uint256"
        },
        {
          "internalType": "uint256",
          "name": "_raise_min",
          "type": "uint256"
        },
        {
          "internalType": "uint256",
          "name": "_raise_max",
          "type": "uint256"
        },
        {
          "internalType": "uint256",
          "name": "_softcap",
          "type": "uint256"
        },
        {
          "internalType": "uint256",
          "name": "_hardcap",
          "type": "uint256"
        },
        {
          "internalType": "bool",
          "name": "_whitelist",
          "type": "bool"
        },
        {
          "internalType": "uint256",
          "name": "_presale_start",
          "type": "uint256"
        },
        {
          "internalType": "uint256",
          "name": "_presale_end",
          "type": "uint256"
        }
      ],
      "stateMutability": "nonpayable",
      "type": "constructor"
    },
    {
      "anonymous": false,
      "inputs": [
        {
          "indexed": false,
          "internalType": "address",
          "name": "owner",
          "type": "address"
        },
        {
          "indexed": false,
          "internalType": "address",
          "name": "presaleContractAddress",
          "type": "address"
        }
      ],
      "name": "PresaleCreated",
      "type": "event"
    },
    {
      "anonymous": false,
      "inputs": [
        {
          "indexed": false,
          "internalType": "address",
          "name": "buyerAddress",
          "type": "address"
        },
        {
          "indexed": false,
          "internalType": "uint256",
          "name": "buyValue",
          "type": "uint256"
        }
      ],
      "name": "UserDepsitedSuccess",
      "type": "event"
    },
    {
      "anonymous": false,
      "inputs": [
        {
          "indexed": false,
          "internalType": "uint256",
          "name": "buyerAddress",
          "type": "uint256"
        }
      ],
      "name": "UserWithdrawSuccess",
      "type": "event"
    },
    {
      "anonymous": false,
      "inputs": [
        {
          "indexed": false,
          "internalType": "uint256",
          "name": "withdrawAmount",
          "type": "uint256"
        }
      ],
      "name": "UserWithdrawTokensSuccess",
      "type": "event"
    },
    {
      "inputs": [
        {
          "internalType": "address",
          "name": "",
          "type": "address"
        }
      ],
      "name": "buyers",
      "outputs": [
        {
          "internalType": "uint256",
          "name": "base",
          "type": "uint256"
        },
        {
          "internalType": "uint256",
          "name": "sale",
          "type": "uint256"
        }
      ],
      "stateMutability": "view",
      "type": "function"
    },
    {
      "inputs": [
        {
          "internalType": "address[]",
          "name": "user",
          "type": "address[]"
        }
      ],
      "name": "deleteWhitelistInfo",
      "outputs": [],
      "stateMutability": "nonpayable",
      "type": "function"
    },
    {
      "inputs": [],
      "name": "getPresaleDetails",
      "outputs": [
        {
          "internalType": "address",
          "name": "",
          "type": "address"
        },
        {
          "internalType": "uint256",
          "name": "",
          "type": "uint256"
        },
        {
          "internalType": "uint256",
          "name": "",
          "type": "uint256"
        },
        {
          "internalType": "uint256",
          "name": "",
          "type": "uint256"
        },
        {
          "internalType": "uint256",
          "name": "",
          "type": "uint256"
        },
        {
          "internalType": "uint256",
          "name": "",
          "type": "uint256"
        },
        {
          "internalType": "uint256",
          "name": "",
          "type": "uint256"
        },
        {
          "internalType": "uint256",
          "name": "",
          "type": "uint256"
        },
        {
          "internalType": "uint256",
          "name": "",
          "type": "uint256"
        }
      ],
      "stateMutability": "view",
      "type": "function"
    },
    {
      "inputs": [],
      "name": "getPresaleStatus",
      "outputs": [
        {
          "internalType": "uint256",
          "name": "",
          "type": "uint256"
        },
        {
          "internalType": "uint256",
          "name": "",
          "type": "uint256"
        }
      ],
      "stateMutability": "view",
      "type": "function"
    },
    {
      "inputs": [],
      "name": "getSaleType",
      "outputs": [
        {
          "internalType": "bool",
          "name": "",
          "type": "bool"
        }
      ],
      "stateMutability": "view",
      "type": "function"
    },
    {
      "inputs": [],
      "name": "getTimestamp",
      "outputs": [
        {
          "internalType": "uint256",
          "name": "",
          "type": "uint256"
        }
      ],
      "stateMutability": "view",
      "type": "function"
    },
    {
      "inputs": [
        {
          "internalType": "address",
          "name": "_sale_token",
          "type": "address"
        },
        {
          "internalType": "uint256",
          "name": "_token_rate",
          "type": "uint256"
        },
        {
          "internalType": "uint256",
          "name": "_raise_min",
          "type": "uint256"
        },
        {
          "internalType": "uint256",
          "name": "_raise_max",
          "type": "uint256"
        },
        {
          "internalType": "uint256",
          "name": "_softcap",
          "type": "uint256"
        },
        {
          "internalType": "uint256",
          "name": "_hardcap",
          "type": "uint256"
        },
        {
          "internalType": "bool",
          "name": "_whitelist",
          "type": "bool"
        },
        {
          "internalType": "uint256",
          "name": "_presale_start",
          "type": "uint256"
        },
        {
          "internalType": "uint256",
          "name": "_presale_end",
          "type": "uint256"
        }
      ],
      "name": "init_private",
      "outputs": [],
      "stateMutability": "nonpayable",
      "type": "function"
    },
    {
      "inputs": [],
      "name": "lock_delay",
      "outputs": [
        {
          "internalType": "uint256",
          "name": "",
          "type": "uint256"
        }
      ],
      "stateMutability": "view",
      "type": "function"
    },
    {
      "inputs": [],
      "name": "presaleStatus",
      "outputs": [
        {
          "internalType": "uint256",
          "name": "",
          "type": "uint256"
        }
      ],
      "stateMutability": "view",
      "type": "function"
    },
    {
      "inputs": [],
      "name": "presale_info",
      "outputs": [
        {
          "internalType": "address",
          "name": "sale_token",
          "type": "address"
        },
        {
          "internalType": "uint256",
          "name": "token_rate",
          "type": "uint256"
        },
        {
          "internalType": "uint256",
          "name": "raise_min",
          "type": "uint256"
        },
        {
          "internalType": "uint256",
          "name": "raise_max",
          "type": "uint256"
        },
        {
          "internalType": "uint256",
          "name": "softcap",
          "type": "uint256"
        },
        {
          "internalType": "uint256",
          "name": "hardcap",
          "type": "uint256"
        },
        {
          "internalType": "uint256",
          "name": "presale_start",
          "type": "uint256"
        },
        {
          "internalType": "uint256",
          "name": "presale_end",
          "type": "uint256"
        },
        {
          "internalType": "enum PresaleNew.PresaleType",
          "name": "presale_type",
          "type": "uint8"
        },
        {
          "internalType": "uint256",
          "name": "public_time",
          "type": "uint256"
        },
        {
          "internalType": "bool",
          "name": "canceled",
          "type": "bool"
        }
      ],
      "stateMutability": "view",
      "type": "function"
    },
    {
      "inputs": [],
      "name": "purchaseICOCoin",
      "outputs": [],
      "stateMutability": "nonpayable",
      "type": "function"
    },
    {
      "inputs": [],
      "name": "remainingBurn",
      "outputs": [],
      "stateMutability": "nonpayable",
      "type": "function"
    },
    {
      "inputs": [],
      "name": "setCancel",
      "outputs": [],
      "stateMutability": "nonpayable",
      "type": "function"
    },
    {
      "inputs": [
        {
          "internalType": "uint256",
          "name": "delay",
          "type": "uint256"
        }
      ],
      "name": "setLockDelay",
      "outputs": [],
      "stateMutability": "nonpayable",
      "type": "function"
    },
    {
      "inputs": [
        {
          "internalType": "address",
          "name": "_newOwner",
          "type": "address"
        }
      ],
      "name": "setOwner",
      "outputs": [],
      "stateMutability": "nonpayable",
      "type": "function"
    },
    {
      "inputs": [
        {
          "internalType": "uint256",
          "name": "time",
          "type": "uint256"
        }
      ],
      "name": "setPublic",
      "outputs": [],
      "stateMutability": "nonpayable",
      "type": "function"
    },
    {
      "inputs": [],
      "name": "setWhitelist",
      "outputs": [],
      "stateMutability": "nonpayable",
      "type": "function"
    },
    {
      "inputs": [
        {
          "internalType": "address[]",
          "name": "user",
          "type": "address[]"
        }
      ],
      "name": "setWhitelistInfo",
      "outputs": [],
      "stateMutability": "nonpayable",
      "type": "function"
    },
    {
      "inputs": [],
      "name": "status",
      "outputs": [
        {
          "internalType": "bool",
          "name": "force_failed",
          "type": "bool"
        },
        {
          "internalType": "uint256",
          "name": "raised_amount",
          "type": "uint256"
        },
        {
          "internalType": "uint256",
          "name": "sold_amount",
          "type": "uint256"
        },
        {
          "internalType": "uint256",
          "name": "token_withdraw",
          "type": "uint256"
        },
        {
          "internalType": "uint256",
          "name": "base_withdraw",
          "type": "uint256"
        },
        {
          "internalType": "uint256",
          "name": "num_buyers",
          "type": "uint256"
        }
      ],
      "stateMutability": "view",
      "type": "function"
    },
    {
      "inputs": [],
      "name": "tokeninfo",
      "outputs": [
        {
          "internalType": "string",
          "name": "name",
          "type": "string"
        },
        {
          "internalType": "string",
          "name": "symbol",
          "type": "string"
        },
        {
          "internalType": "uint256",
          "name": "totalsupply",
          "type": "uint256"
        },
        {
          "internalType": "uint256",
          "name": "decimal",
          "type": "uint256"
        }
      ],
      "stateMutability": "view",
      "type": "function"
    },
    {
      "inputs": [],
      "name": "userDeposit",
      "outputs": [],
      "stateMutability": "payable",
      "type": "function"
    },
    {
      "inputs": [],
      "name": "userWithdrawBaseTokens",
      "outputs": [],
      "stateMutability": "nonpayable",
      "type": "function"
    },
    {
      "inputs": [],
      "name": "userWithdrawTokens",
      "outputs": [],
      "stateMutability": "nonpayable",
      "type": "function"
    },
    {
      "inputs": [
        {
          "internalType": "address",
          "name": "",
          "type": "address"
        }
      ],
      "name": "whitelistInfo",
      "outputs": [
        {
          "internalType": "bool",
          "name": "",
          "type": "bool"
        }
      ],
      "stateMutability": "view",
      "type": "function"
    }
  ],
  "bytecode": "0x6080604052601a80546001600160a01b03191661dead1790553480156200002557600080fd5b5060405162002df138038062002df183398101604081905262000048916200044a565b6001600081905580546001600160a01b0319163317905562000072898989898989898989620000d8565b600180546001600160a01b0319166001600160a01b038c16908117909155604080519182523060208301527fcfea6066a7ff70439f7cfe020aea9709cf4b7cb462225660895dfcc5c38716ae910160405180910390a1505050505050505050506200076e565b6001546001600160a01b031633146200012d5760405162461bcd60e51b81526020600482015260126024820152712737ba10383932b9b0b6329037bbb732b91760711b60448201526064015b60405180910390fd5b60175415620001705760405162461bcd60e51b815260206004820152600e60248201526d105b1c9958591e481cd95d1d195960921b604482015260640162000124565b6001600160a01b038916620001b75760405162461bcd60e51b815260206004820152600c60248201526b5a65726f204164647265737360a01b604482015260640162000124565b600280546001600160a01b0319166001600160a01b038b1617905560038890556004879055600586905560068590556007849055600981905560088290558215156001036200021357600a805460ff191660011790556200021e565b600a805460ff191690555b600c805460ff19169055600254604080516306fdde0360e01b815290516001600160a01b03909216916306fdde03916004808201926000929091908290030181865afa15801562000273573d6000803e3d6000fd5b505050506040513d6000823e601f3d908101601f191682016040526200029d9190810190620004f8565b601390620002ac90826200065c565b50600254604080516395d89b4160e01b815290516001600160a01b03909216916395d89b41916004808201926000929091908290030181865afa158015620002f8573d6000803e3d6000fd5b505050506040513d6000823e601f3d908101601f19168201604052620003229190810190620004f8565b6014906200033190826200065c565b506002546040805163313ce56760e01b815290516001600160a01b039092169163313ce567916004808201926020929091908290030181865afa1580156200037d573d6000803e3d6000fd5b505050506040513d601f19601f82011682018060405250810190620003a3919062000728565b60ff16601655600254604080516318160ddd60e01b815290516001600160a01b03909216916318160ddd916004808201926020929091908290030181865afa158015620003f4573d6000803e3d6000fd5b505050506040513d601f19601f820116820180604052508101906200041a919062000754565b6015555050600160175550505050505050565b80516001600160a01b03811681146200044557600080fd5b919050565b6000806000806000806000806000806101408b8d0312156200046b57600080fd5b620004768b6200042d565b99506200048660208c016200042d565b985060408b0151975060608b0151965060808b0151955060a08b0151945060c08b0151935060e08b01518015158114620004bf57600080fd5b809350506101008b015191506101208b015190509295989b9194979a5092959850565b634e487b7160e01b600052604160045260246000fd5b600060208083850312156200050c57600080fd5b82516001600160401b03808211156200052457600080fd5b818501915085601f8301126200053957600080fd5b8151818111156200054e576200054e620004e2565b604051601f8201601f19908116603f01168101908382118183101715620005795762000579620004e2565b8160405282815288868487010111156200059257600080fd5b600093505b82841015620005b6578484018601518185018701529285019262000597565b600086848301015280965050505050505092915050565b600181811c90821680620005e257607f821691505b6020821081036200060357634e487b7160e01b600052602260045260246000fd5b50919050565b601f8211156200065757600081815260208120601f850160051c81016020861015620006325750805b601f850160051c820191505b8181101562000653578281556001016200063e565b5050505b505050565b81516001600160401b03811115620006785762000678620004e2565b6200069081620006898454620005cd565b8462000609565b602080601f831160018114620006c85760008415620006af5750858301515b600019600386901b1c1916600185901b17855562000653565b600085815260208120601f198616915b82811015620006f957888601518255948401946001909101908401620006d8565b5085821015620007185787850151600019600388901b60f8161c191681555b5050505050600190811b01905550565b6000602082840312156200073b57600080fd5b815160ff811681146200074d57600080fd5b9392505050565b6000602082840312156200076757600080fd5b5051919050565b612673806200077e6000396000f3fe60806040526004361061018b5760003560e01c8063aabcf445116100d6578063d1e812a31161007f578063d7517caa11610059578063d7517caa146104e7578063d8454353146104ff578063fe8121de1461051457600080fd5b8063d1e812a31461049d578063d2618baf146104b2578063d438ff38146104c757600080fd5b8063c06c7d49116100b0578063c06c7d4914610428578063c39e7dbb14610468578063ca1a961d1461047d57600080fd5b8063aabcf445146103de578063acfb2355146103fe578063b923b2051461041357600080fd5b80634729376b116101385780635f87602f116101125780635f87602f1461035057806397a993aa146103705780639d1213a7146103b957600080fd5b80634729376b1461028057806348146113146102e35780634d18b5e2146102eb57600080fd5b80631d9d0db1116101695780631d9d0db1146101ee578063200d2ed21461020357806331845f7d1461026057600080fd5b8063112f5dad1461019057806313af4035146101b9578063188ec356146101db575b600080fd5b34801561019c57600080fd5b506101a6601b5481565b6040519081526020015b60405180910390f35b3480156101c557600080fd5b506101d96101d436600461205a565b610529565b005b3480156101e757600080fd5b50426101a6565b3480156101fa57600080fd5b506101d96105ac565b34801561020f57600080fd5b50600d54600e54600f546010546011546012546102319560ff16949392919086565b6040805196151587526020870195909552938501929092526060840152608083015260a082015260c0016101b0565b34801561026c57600080fd5b506101d961027b366004612075565b6106d0565b34801561028c57600080fd5b5061029561072e565b604080516001600160a01b03909a168a5260208a0198909852968801959095526060870193909352608086019190915260a085015260c084015260e0830152610100820152610120016101b0565b6101d961078e565b3480156102f757600080fd5b50600254600354600454600554600654600754600854600954600a54600b54600c546103399a6001600160a01b0316999897969594939260ff9081169291168b565b6040516101b09b9a999897969594939291906120a4565b34801561035c57600080fd5b506101d961036b366004612175565b610d3b565b34801561037c57600080fd5b506103a461038b36600461205a565b6018602052600090815260409020805460019091015482565b604080519283526020830191909152016101b0565b3480156103c557600080fd5b506103ce610e34565b6040516101b09493929190612272565b3480156103ea57600080fd5b506101d96103f9366004612175565b610f60565b34801561040a57600080fd5b506101a6611055565b34801561041f57600080fd5b506101d96110e2565b34801561043457600080fd5b5061045861044336600461205a565b60196020526000908152604090205460ff1681565b60405190151581526020016101b0565b34801561047457600080fd5b506101d9611140565b34801561048957600080fd5b506101d9610498366004612075565b6112f5565b3480156104a957600080fd5b50610458611349565b3480156104be57600080fd5b506101d961136e565b3480156104d357600080fd5b506101d96104e23660046122b9565b6113cc565b3480156104f357600080fd5b506008546009546103a4565b34801561050b57600080fd5b506101d9611796565b34801561052057600080fd5b506101d96118d0565b6001546001600160a01b0316331461057d5760405162461bcd60e51b81526020600482015260126024820152712737ba10383932b9b0b6329037bbb732b91760711b60448201526064015b60405180910390fd5b6001805473ffffffffffffffffffffffffffffffffffffffff19166001600160a01b0392909216919091179055565b6002600054036105fe5760405162461bcd60e51b815260206004820152601f60248201527f5265656e7472616e637947756172643a207265656e7472616e742063616c6c006044820152606401610574565b60026000556001546001600160a01b031633146106525760405162461bcd60e51b81526020600482015260126024820152712737ba10383932b9b0b6329037bbb732b91760711b6044820152606401610574565b61065a611055565b6002146106995760405162461bcd60e51b815260206004820152600d60248201526c139bdd081cdd58d8d959591959609a1b6044820152606401610574565b604051339081904780156108fc02916000818181858888f193505050501580156106c7573d6000803e3d6000fd5b50506001600055565b6001546001600160a01b0316331461071f5760405162461bcd60e51b81526020600482015260126024820152712737ba10383932b9b0b6329037bbb732b91760711b6044820152606401610574565b600a805460ff19169055600b55565b600254600354600454600554600654600754600854600954600097889788978897889788978897889788976001600160a01b031696959493929190610771611055565b985098509850985098509850985098509850909192939495969798565b6002600054036107e05760405162461bcd60e51b815260206004820152601f60248201527f5265656e7472616e637947756172643a207265656e7472616e742063616c6c006044820152606401610574565b60026000556001600a5460ff1660018111156107fe576107fe61208e565b0361086c573360009081526019602052604090205460ff1615156001146108675760405162461bcd60e51b815260206004820152601860248201527f596f7520617265206e6f742077686974656c69737465642e00000000000000006044820152606401610574565b6108e2565b600b54156108e257600b544210156108e2573360009081526019602052604090205460ff1615156001146108e25760405162461bcd60e51b815260206004820152601860248201527f596f7520617265206e6f742077686974656c69737465642e00000000000000006044820152606401610574565b6108ea611055565b6001146109395760405162461bcd60e51b815260206004820152600a60248201527f4e6f7420416374697665000000000000000000000000000000000000000000006044820152606401610574565b60045434101561098b5760405162461bcd60e51b815260206004820152601660248201527f42616c616e636520697320696e737566666963656e74000000000000000000006044820152606401610574565b6005543411156109dd5760405162461bcd60e51b815260206004820152601360248201527f42616c616e636520697320746f6f206d756368000000000000000000000000006044820152606401610574565b3360009081526018602052604081208054600554919234929091610a019190611acf565b600e54600754919250600091610a17919061234a565b9050808211610a265781610a28565b805b915081831115610a36578192505b600354600090610a47908590611b1a565b905083670de0b6b3a764000003610a6b57506b01c6f307be4c4687e6000000610b11565b83671bc16d674ec8000003610a8d57506b03e09de2596099e2b0000000610b11565b836729a2241af62c000003610aaf57506b05d0ecd38610e6d408000000610b11565b83674563918244f4000003610ad157506b0b4f21d42f59c0d52c000000610b11565b83678ac7230489e8000003610af357506b19d971e4fe8401e740000000610b11565b8367d02ab486cedc000003610b1157506b3077b58d5d378391980000005b60008111610b615760405162461bcd60e51b815260206004820152600b60248201527f5a45524f20544f4b454e530000000000000000000000000000000000000000006044820152606401610574565b6002546040516370a0823160e01b81523060048201526001600160a01b03909116906370a0823190602401602060405180830381865afa158015610ba9573d6000803e3d6000fd5b505050506040513d601f19601f82011682018060405250810190610bcd919061235d565b600354600e54610bdd9190612376565b1115610c2b5760405162461bcd60e51b815260206004820152601260248201527f546f6b656e2072656d61696e206572726f7200000000000000000000000000006044820152606401610574565b8454600003610c4a5760128054906000610c448361238d565b91905055505b33600090815260186020526040902054610c649085611bb8565b33600090815260186020526040902090815560010154610c849082611bb8565b33600090815260186020526040902060010155600e54610ca49085611bb8565b600e55600f54610cb49082611bb8565b600f5534841015610cf757336108fc610ccd3487611acf565b6040518115909202916000818181858888f19350505050158015610cf5573d6000803e3d6000fd5b505b604080513381523460208201527f6800c78b31b30f29de1de17ff27c5e7c5a990802a69fd1216dd496bafd9c6e01910160405180910390a150506001600055505050565b6001546001600160a01b03163314610d8a5760405162461bcd60e51b81526020600482015260126024820152712737ba10383932b9b0b6329037bbb732b91760711b6044820152606401610574565b6001600a5460ff166001811115610da357610da361208e565b14610df05760405162461bcd60e51b815260206004820152601160248201527f77686974656c697374206e6f74207365740000000000000000000000000000006044820152606401610574565b60005b8151811015610e3057610e1e828281518110610e1157610e116123a6565b6020026020010151611c17565b80610e288161238d565b915050610df3565b5050565b601380548190610e43906123bc565b80601f0160208091040260200160405190810160405280929190818152602001828054610e6f906123bc565b8015610ebc5780601f10610e9157610100808354040283529160200191610ebc565b820191906000526020600020905b815481529060010190602001808311610e9f57829003601f168201915b505050505090806001018054610ed1906123bc565b80601f0160208091040260200160405190810160405280929190818152602001828054610efd906123bc565b8015610f4a5780601f10610f1f57610100808354040283529160200191610f4a565b820191906000526020600020905b815481529060010190602001808311610f2d57829003601f168201915b5050505050908060020154908060030154905084565b6001546001600160a01b03163314610faf5760405162461bcd60e51b81526020600482015260126024820152712737ba10383932b9b0b6329037bbb732b91760711b6044820152606401610574565b6001600a5460ff166001811115610fc857610fc861208e565b146110155760405162461bcd60e51b815260206004820152601160248201527f77686974656c697374206e6f74207365740000000000000000000000000000006044820152606401610574565b60005b8151811015610e3057611043828281518110611036576110366123a6565b6020026020010151611c87565b8061104d8161238d565b915050611018565b600c5460009060ff16151560010361106d5750600490565b600954421180156110815750600654600e54105b1561108c5750600390565b600754600e541061109d5750600290565b600954421180156110b25750600654600e5410155b156110bd5750600290565b60085442108015906110d157506009544211155b156110dc5750600190565b50600090565b6001546001600160a01b031633146111315760405162461bcd60e51b81526020600482015260126024820152712737ba10383932b9b0b6329037bbb732b91760711b6044820152606401610574565b600a805460ff19166001179055565b6002600054036111925760405162461bcd60e51b815260206004820152601f60248201527f5265656e7472616e637947756172643a207265656e7472616e742063616c6c006044820152606401610574565b600260005561119f611055565b6003146111ee5760405162461bcd60e51b815260206004820152600b60248201527f4e6f74206661696c65642e0000000000000000000000000000000000000000006044820152606401610574565b336000908152601860205260409020805447908110156112505760405162461bcd60e51b815260206004820152601460248201527f4e6f7468696e6720746f2077697468647261772e0000000000000000000000006044820152606401610574565b815460115461125e91611bb8565b60115581546040513391829181156108fc0291906000818181858888f19350505050158015611291573d6000803e3d6000fd5b506001546001600160a01b031633036112ac576112ac611cfa565b6000808455600184018190556040519081527fba8f86526b8f4836c344cbbb8d752a5deb45d8d86c8fdcc0318124656ed1f1699060200160405180910390a15050600160005550565b6001546001600160a01b031633146113445760405162461bcd60e51b81526020600482015260126024820152712737ba10383932b9b0b6329037bbb732b91760711b6044820152606401610574565b601b55565b600080600a5460ff1660018111156113635761136361208e565b036110dc5750600190565b6001546001600160a01b031633146113bd5760405162461bcd60e51b81526020600482015260126024820152712737ba10383932b9b0b6329037bbb732b91760711b6044820152606401610574565b600c805460ff19166001179055565b6001546001600160a01b0316331461141b5760405162461bcd60e51b81526020600482015260126024820152712737ba10383932b9b0b6329037bbb732b91760711b6044820152606401610574565b6017541561146b5760405162461bcd60e51b815260206004820152600e60248201527f416c7265616479207365747465640000000000000000000000000000000000006044820152606401610574565b6001600160a01b0389166114c15760405162461bcd60e51b815260206004820152600c60248201527f5a65726f204164647265737300000000000000000000000000000000000000006044820152606401610574565b6002805473ffffffffffffffffffffffffffffffffffffffff19166001600160a01b038b16179055600388905560048790556005869055600685905560078490556009819055600882905582151560010361152857600a805460ff19166001179055611533565b600a805460ff191690555b600c805460ff19169055600254604080517f06fdde0300000000000000000000000000000000000000000000000000000000815290516001600160a01b03909216916306fdde03916004808201926000929091908290030181865afa1580156115a0573d6000803e3d6000fd5b505050506040513d6000823e601f3d908101601f191682016040526115c891908101906123f6565b6013906115d590826124d9565b50600254604080517f95d89b4100000000000000000000000000000000000000000000000000000000815290516001600160a01b03909216916395d89b41916004808201926000929091908290030181865afa158015611639573d6000803e3d6000fd5b505050506040513d6000823e601f3d908101601f1916820160405261166191908101906123f6565b60149061166e90826124d9565b50600254604080517f313ce56700000000000000000000000000000000000000000000000000000000815290516001600160a01b039092169163313ce567916004808201926020929091908290030181865afa1580156116d2573d6000803e3d6000fd5b505050506040513d601f19601f820116820180604052508101906116f69190612599565b60ff16601655600254604080517f18160ddd00000000000000000000000000000000000000000000000000000000815290516001600160a01b03909216916318160ddd916004808201926020929091908290030181865afa15801561175f573d6000803e3d6000fd5b505050506040513d601f19601f82011682018060405250810190611783919061235d565b6015555050600160175550505050505050565b6001546001600160a01b031633146117e55760405162461bcd60e51b81526020600482015260126024820152712737ba10383932b9b0b6329037bbb732b91760711b6044820152606401610574565b6117ed611055565b60021461182c5760405162461bcd60e51b815260206004820152600d60248201526c139bdd081cdd58d8d959591959609a1b6044820152606401610574565b600f5460035460075461183f9190612376565b101561188d5760405162461bcd60e51b815260206004820152600f60248201527f4e6f7468696e6720746f206275726e00000000000000000000000000000000006044820152606401610574565b600f54600354600754600092916118a391612376565b6118ad919061234a565b600254601a549192506118cd916001600160a01b03918216911683611ebb565b50565b6002600054036119225760405162461bcd60e51b815260206004820152601f60248201527f5265656e7472616e637947756172643a207265656e7472616e742063616c6c006044820152606401610574565b600260005561192f611055565b60021461196e5760405162461bcd60e51b815260206004820152600d60248201526c139bdd081cdd58d8d959591959609a1b6044820152606401610574565b601b5460095461197e91906125bc565b4210156119cd5760405162461bcd60e51b815260206004820152600d60248201527f546f6b656e204c6f636b65642e000000000000000000000000000000000000006044820152606401610574565b336000908152601860205260408120601054600f549192916119ee91611acf565b90508160010154811015611a445760405162461bcd60e51b815260206004820152601460248201527f4e6f7468696e6720746f2077697468647261772e0000000000000000000000006044820152606401610574565b6002546001830154611a61916001600160a01b0316903390611ebb565b6001820154601054611a7291611bb8565b60105533600090815260186020908152604080832060018082018590559390559184015491519182527f6eb77a5c4ed3153e65b1a8804e82c2ffa0d2b39fd8dba4ae39b6476c7bf65f7e910160405180910390a150506001600055565b6000611b1183836040518060400160405280601e81526020017f536166654d6174683a207375627472616374696f6e206f766572666c6f770000815250612004565b90505b92915050565b600082600003611b2c57506000611b14565b6000611b388385612376565b905082611b4585836125cf565b14611b115760405162461bcd60e51b815260206004820152602160248201527f536166654d6174683a206d756c7469706c69636174696f6e206f766572666c6f60448201527f77000000000000000000000000000000000000000000000000000000000000006064820152608401610574565b600080611bc583856125bc565b905083811015611b115760405162461bcd60e51b815260206004820152601b60248201527f536166654d6174683a206164646974696f6e206f766572666c6f7700000000006044820152606401610574565b6001546001600160a01b03163314611c665760405162461bcd60e51b81526020600482015260126024820152712737ba10383932b9b0b6329037bbb732b91760711b6044820152606401610574565b6001600160a01b03166000908152601960205260409020805460ff19169055565b6001546001600160a01b03163314611cd65760405162461bcd60e51b81526020600482015260126024820152712737ba10383932b9b0b6329037bbb732b91760711b6044820152606401610574565b6001600160a01b03166000908152601960205260409020805460ff19166001179055565b6001546001600160a01b03163314611d495760405162461bcd60e51b81526020600482015260126024820152712737ba10383932b9b0b6329037bbb732b91760711b6044820152606401610574565b611d51611055565b600314611da05760405162461bcd60e51b815260206004820152601360248201527f4f6e6c79206661696c6564207374617475732e000000000000000000000000006044820152606401610574565b6002546001546040516370a0823160e01b8152306004820152611e1c926001600160a01b0390811692169082906370a0823190602401602060405180830381865afa158015611df3573d6000803e3d6000fd5b505050506040513d601f19601f82011682018060405250810190611e17919061235d565b611ebb565b6002546040516370a0823160e01b81523060048201527fba8f86526b8f4836c344cbbb8d752a5deb45d8d86c8fdcc0318124656ed1f169916001600160a01b0316906370a0823190602401602060405180830381865afa158015611e84573d6000803e3d6000fd5b505050506040513d601f19601f82011682018060405250810190611ea8919061235d565b60405190815260200160405180910390a1565b604080516001600160a01b038481166024830152604480830185905283518084039091018152606490920183526020820180517bffffffffffffffffffffffffffffffffffffffffffffffffffffffff167fa9059cbb000000000000000000000000000000000000000000000000000000001790529151600092839290871691611f4591906125f1565b6000604051808303816000865af19150503d8060008114611f82576040519150601f19603f3d011682016040523d82523d6000602084013e611f87565b606091505b5091509150818015611fb1575080511580611fb1575080806020019051810190611fb1919061260d565b611ffd5760405162461bcd60e51b815260206004820152601f60248201527f5472616e7366657248656c7065723a205452414e534645525f4641494c4544006044820152606401610574565b5050505050565b600081848411156120285760405162461bcd60e51b8152600401610574919061262a565b506000612035848661234a565b95945050505050565b80356001600160a01b038116811461205557600080fd5b919050565b60006020828403121561206c57600080fd5b611b118261203e565b60006020828403121561208757600080fd5b5035919050565b634e487b7160e01b600052602160045260246000fd5b6000610160820190506001600160a01b038d1682528b60208301528a60408301528960608301528860808301528760a08301528660c08301528560e08301526002851061210157634e487b7160e01b600052602160045260246000fd5b846101008301528361012083015261211e61014083018415159052565b9c9b505050505050505050505050565b634e487b7160e01b600052604160045260246000fd5b604051601f8201601f1916810167ffffffffffffffff8111828210171561216d5761216d61212e565b604052919050565b6000602080838503121561218857600080fd5b823567ffffffffffffffff808211156121a057600080fd5b818501915085601f8301126121b457600080fd5b8135818111156121c6576121c661212e565b8060051b91506121d7848301612144565b81815291830184019184810190888411156121f157600080fd5b938501935b83851015612216576122078561203e565b825293850193908501906121f6565b98975050505050505050565b60005b8381101561223d578181015183820152602001612225565b50506000910152565b6000815180845261225e816020860160208601612222565b601f01601f19169290920160200192915050565b6080815260006122856080830187612246565b82810360208401526122978187612246565b604084019590955250506060015292915050565b80151581146118cd57600080fd5b60008060008060008060008060006101208a8c0312156122d857600080fd5b6122e18a61203e565b985060208a0135975060408a0135965060608a0135955060808a0135945060a08a0135935060c08a0135612314816122ab565b8093505060e08a013591506101008a013590509295985092959850929598565b634e487b7160e01b600052601160045260246000fd5b81810381811115611b1457611b14612334565b60006020828403121561236f57600080fd5b5051919050565b8082028115828204841417611b1457611b14612334565b60006001820161239f5761239f612334565b5060010190565b634e487b7160e01b600052603260045260246000fd5b600181811c908216806123d057607f821691505b6020821081036123f057634e487b7160e01b600052602260045260246000fd5b50919050565b60006020828403121561240857600080fd5b815167ffffffffffffffff8082111561242057600080fd5b818401915084601f83011261243457600080fd5b8151818111156124465761244661212e565b612459601f8201601f1916602001612144565b915080825285602082850101111561247057600080fd5b612481816020840160208601612222565b50949350505050565b601f8211156124d457600081815260208120601f850160051c810160208610156124b15750805b601f850160051c820191505b818110156124d0578281556001016124bd565b5050505b505050565b815167ffffffffffffffff8111156124f3576124f361212e565b6125078161250184546123bc565b8461248a565b602080601f83116001811461253c57600084156125245750858301515b600019600386901b1c1916600185901b1785556124d0565b600085815260208120601f198616915b8281101561256b5788860151825594840194600190910190840161254c565b50858210156125895787850151600019600388901b60f8161c191681555b5050505050600190811b01905550565b6000602082840312156125ab57600080fd5b815160ff81168114611b1157600080fd5b80820180821115611b1457611b14612334565b6000826125ec57634e487b7160e01b600052601260045260246000fd5b500490565b60008251612603818460208701612222565b9190910192915050565b60006020828403121561261f57600080fd5b8151611b11816122ab565b602081526000611b11602083018461224656fea2646970667358221220a45f6defba9ba0d8f71cad62429bd688c6fc15e552ab49a5ad93550a26b23a9364736f6c63430008110033",
  "linkReferences": {},
  "deployedLinkReferences": {}
}