{
  "_format": "hh-sol-artifact-1",
  "contractName": "ZigbitToken",
  "sourceName": "contracts/Zigbit.sol",
  "abi": [
    {
      "inputs": [
        {
          "internalType": "string",
          "name": "name_",
          "type": "string"
        },
        {
          "internalType": "string",
          "name": "symbol_",
          "type": "string"
        },
        {
          "internalType": "uint8",
          "name": "decimals_",
          "type": "uint8"
        },
        {
          "internalType": "uint256",
          "name": "tax_fee_",
          "type": "uint256"
        },
        {
          "internalType": "uint256",
          "name": "burn_fee_",
          "type": "uint256"
        },
        {
          "internalType": "uint256",
          "name": "charity_fee_",
          "type": "uint256"
        },
        {
          "internalType": "uint256",
          "name": "ad_fee_",
          "type": "uint256"
        },
        {
          "internalType": "address",
          "name": "takeTaxFeeAddress_",
          "type": "address"
        },
        {
          "internalType": "address",
          "name": "takeCharityFeeAddress_",
          "type": "address"
        },
        {
          "internalType": "address",
          "name": "takeAdFeeAddress_",
          "type": "address"
        }
      ],
      "stateMutability": "nonpayable",
      "type": "constructor"
    },
    {
      "anonymous": false,
      "inputs": [
        {
          "indexed": false,
          "internalType": "address",
          "name": "_user",
          "type": "address"
        }
      ],
      "name": "AddedBlackList",
      "type": "event"
    },
    {
      "anonymous": false,
      "inputs": [
        {
          "indexed": true,
          "internalType": "address",
          "name": "owner",
          "type": "address"
        },
        {
          "indexed": true,
          "internalType": "address",
          "name": "spender",
          "type": "address"
        },
        {
          "indexed": false,
          "internalType": "uint256",
          "name": "value",
          "type": "uint256"
        }
      ],
      "name": "Approval",
      "type": "event"
    },
    {
      "anonymous": false,
      "inputs": [
        {
          "indexed": false,
          "internalType": "address",
          "name": "_blackListedUser",
          "type": "address"
        },
        {
          "indexed": false,
          "internalType": "uint256",
          "name": "_balance",
          "type": "uint256"
        }
      ],
      "name": "DestroyedBlackFunds",
      "type": "event"
    },
    {
      "anonymous": false,
      "inputs": [
        {
          "indexed": true,
          "internalType": "address",
          "name": "previousOwner",
          "type": "address"
        },
        {
          "indexed": true,
          "internalType": "address",
          "name": "newOwner",
          "type": "address"
        }
      ],
      "name": "OwnershipTransferred",
      "type": "event"
    },
    {
      "anonymous": false,
      "inputs": [
        {
          "indexed": false,
          "internalType": "address",
          "name": "account",
          "type": "address"
        }
      ],
      "name": "Paused",
      "type": "event"
    },
    {
      "anonymous": false,
      "inputs": [
        {
          "indexed": false,
          "internalType": "address",
          "name": "_user",
          "type": "address"
        }
      ],
      "name": "RemovedBlackList",
      "type": "event"
    },
    {
      "anonymous": false,
      "inputs": [
        {
          "indexed": true,
          "internalType": "address",
          "name": "from",
          "type": "address"
        },
        {
          "indexed": true,
          "internalType": "address",
          "name": "to",
          "type": "address"
        },
        {
          "indexed": false,
          "internalType": "uint256",
          "name": "value",
          "type": "uint256"
        }
      ],
      "name": "Transfer",
      "type": "event"
    },
    {
      "anonymous": false,
      "inputs": [
        {
          "indexed": false,
          "internalType": "address",
          "name": "account",
          "type": "address"
        }
      ],
      "name": "Unpaused",
      "type": "event"
    },
    {
      "inputs": [
        {
          "internalType": "address",
          "name": "account",
          "type": "address"
        },
        {
          "internalType": "uint256",
          "name": "amount",
          "type": "uint256"
        }
      ],
      "name": "_mint",
      "outputs": [],
      "stateMutability": "nonpayable",
      "type": "function"
    },
    {
      "inputs": [],
      "name": "_pause",
      "outputs": [],
      "stateMutability": "nonpayable",
      "type": "function"
    },
    {
      "inputs": [],
      "name": "_unpause",
      "outputs": [],
      "stateMutability": "nonpayable",
      "type": "function"
    },
    {
      "inputs": [],
      "name": "adFee",
      "outputs": [
        {
          "internalType": "uint256",
          "name": "",
          "type": "uint256"
        }
      ],
      "stateMutability": "view",
      "type": "function"
    },
    {
      "inputs": [
        {
          "internalType": "address",
          "name": "_evilUser",
          "type": "address"
        }
      ],
      "name": "addBlackList",
      "outputs": [],
      "stateMutability": "nonpayable",
      "type": "function"
    },
    {
      "inputs": [
        {
          "internalType": "address",
          "name": "owner",
          "type": "address"
        },
        {
          "internalType": "address",
          "name": "spender",
          "type": "address"
        }
      ],
      "name": "allowance",
      "outputs": [
        {
          "internalType": "uint256",
          "name": "",
          "type": "uint256"
        }
      ],
      "stateMutability": "view",
      "type": "function"
    },
    {
      "inputs": [
        {
          "internalType": "address",
          "name": "spender",
          "type": "address"
        },
        {
          "internalType": "uint256",
          "name": "amount",
          "type": "uint256"
        }
      ],
      "name": "approve",
      "outputs": [
        {
          "internalType": "bool",
          "name": "",
          "type": "bool"
        }
      ],
      "stateMutability": "nonpayable",
      "type": "function"
    },
    {
      "inputs": [
        {
          "internalType": "address",
          "name": "account",
          "type": "address"
        }
      ],
      "name": "balanceOf",
      "outputs": [
        {
          "internalType": "uint256",
          "name": "",
          "type": "uint256"
        }
      ],
      "stateMutability": "view",
      "type": "function"
    },
    {
      "inputs": [
        {
          "internalType": "uint256",
          "name": "amount",
          "type": "uint256"
        }
      ],
      "name": "burn",
      "outputs": [],
      "stateMutability": "nonpayable",
      "type": "function"
    },
    {
      "inputs": [
        {
          "internalType": "address",
          "name": "account",
          "type": "address"
        },
        {
          "internalType": "uint256",
          "name": "amount",
          "type": "uint256"
        }
      ],
      "name": "burnByOwner",
      "outputs": [],
      "stateMutability": "nonpayable",
      "type": "function"
    },
    {
      "inputs": [],
      "name": "burnFee",
      "outputs": [
        {
          "internalType": "uint256",
          "name": "",
          "type": "uint256"
        }
      ],
      "stateMutability": "view",
      "type": "function"
    },
    {
      "inputs": [],
      "name": "charityFee",
      "outputs": [
        {
          "internalType": "uint256",
          "name": "",
          "type": "uint256"
        }
      ],
      "stateMutability": "view",
      "type": "function"
    },
    {
      "inputs": [],
      "name": "decimals",
      "outputs": [
        {
          "internalType": "uint8",
          "name": "",
          "type": "uint8"
        }
      ],
      "stateMutability": "view",
      "type": "function"
    },
    {
      "inputs": [
        {
          "internalType": "address",
          "name": "spender",
          "type": "address"
        },
        {
          "internalType": "uint256",
          "name": "subtractedValue",
          "type": "uint256"
        }
      ],
      "name": "decreaseAllowance",
      "outputs": [
        {
          "internalType": "bool",
          "name": "",
          "type": "bool"
        }
      ],
      "stateMutability": "nonpayable",
      "type": "function"
    },
    {
      "inputs": [
        {
          "internalType": "address",
          "name": "_blackListedUser",
          "type": "address"
        }
      ],
      "name": "destroyBlackFunds",
      "outputs": [],
      "stateMutability": "nonpayable",
      "type": "function"
    },
    {
      "inputs": [
        {
          "internalType": "address",
          "name": "account",
          "type": "address"
        }
      ],
      "name": "excludeFromFee",
      "outputs": [],
      "stateMutability": "nonpayable",
      "type": "function"
    },
    {
      "inputs": [
        {
          "internalType": "address",
          "name": "account",
          "type": "address"
        }
      ],
      "name": "excludeStatus",
      "outputs": [
        {
          "internalType": "bool",
          "name": "",
          "type": "bool"
        }
      ],
      "stateMutability": "view",
      "type": "function"
    },
    {
      "inputs": [],
      "name": "getAdFeeAddress",
      "outputs": [
        {
          "internalType": "address",
          "name": "",
          "type": "address"
        }
      ],
      "stateMutability": "view",
      "type": "function"
    },
    {
      "inputs": [
        {
          "internalType": "address",
          "name": "_maker",
          "type": "address"
        }
      ],
      "name": "getBlackListStatus",
      "outputs": [
        {
          "internalType": "bool",
          "name": "",
          "type": "bool"
        }
      ],
      "stateMutability": "view",
      "type": "function"
    },
    {
      "inputs": [],
      "name": "getCharityFeeAddress",
      "outputs": [
        {
          "internalType": "address",
          "name": "",
          "type": "address"
        }
      ],
      "stateMutability": "view",
      "type": "function"
    },
    {
      "inputs": [],
      "name": "getTaxFeeAddress",
      "outputs": [
        {
          "internalType": "address",
          "name": "",
          "type": "address"
        }
      ],
      "stateMutability": "view",
      "type": "function"
    },
    {
      "inputs": [
        {
          "internalType": "address",
          "name": "account",
          "type": "address"
        }
      ],
      "name": "includeForFee",
      "outputs": [],
      "stateMutability": "nonpayable",
      "type": "function"
    },
    {
      "inputs": [
        {
          "internalType": "address",
          "name": "spender",
          "type": "address"
        },
        {
          "internalType": "uint256",
          "name": "addedValue",
          "type": "uint256"
        }
      ],
      "name": "increaseAllowance",
      "outputs": [
        {
          "internalType": "bool",
          "name": "",
          "type": "bool"
        }
      ],
      "stateMutability": "nonpayable",
      "type": "function"
    },
    {
      "inputs": [],
      "name": "name",
      "outputs": [
        {
          "internalType": "string",
          "name": "",
          "type": "string"
        }
      ],
      "stateMutability": "view",
      "type": "function"
    },
    {
      "inputs": [],
      "name": "owner",
      "outputs": [
        {
          "internalType": "address",
          "name": "",
          "type": "address"
        }
      ],
      "stateMutability": "view",
      "type": "function"
    },
    {
      "inputs": [],
      "name": "paused",
      "outputs": [
        {
          "internalType": "bool",
          "name": "",
          "type": "bool"
        }
      ],
      "stateMutability": "view",
      "type": "function"
    },
    {
      "inputs": [
        {
          "internalType": "address",
          "name": "_clearedUser",
          "type": "address"
        }
      ],
      "name": "removeBlackList",
      "outputs": [],
      "stateMutability": "nonpayable",
      "type": "function"
    },
    {
      "inputs": [],
      "name": "renounceOwnership",
      "outputs": [],
      "stateMutability": "nonpayable",
      "type": "function"
    },
    {
      "inputs": [
        {
          "internalType": "uint256",
          "name": "newAdFee",
          "type": "uint256"
        }
      ],
      "name": "setAdFee",
      "outputs": [],
      "stateMutability": "nonpayable",
      "type": "function"
    },
    {
      "inputs": [
        {
          "internalType": "address",
          "name": "newAdFeeAddress",
          "type": "address"
        }
      ],
      "name": "setAdFeeAddress",
      "outputs": [],
      "stateMutability": "nonpayable",
      "type": "function"
    },
    {
      "inputs": [
        {
          "internalType": "uint256",
          "name": "newBurnFee",
          "type": "uint256"
        }
      ],
      "name": "setBurnFee",
      "outputs": [],
      "stateMutability": "nonpayable",
      "type": "function"
    },
    {
      "inputs": [
        {
          "internalType": "uint256",
          "name": "newCharityFee",
          "type": "uint256"
        }
      ],
      "name": "setCharityFee",
      "outputs": [],
      "stateMutability": "nonpayable",
      "type": "function"
    },
    {
      "inputs": [
        {
          "internalType": "address",
          "name": "newCharityFeeAddress",
          "type": "address"
        }
      ],
      "name": "setCharityFeeAddress",
      "outputs": [],
      "stateMutability": "nonpayable",
      "type": "function"
    },
    {
      "inputs": [
        {
          "internalType": "uint256",
          "name": "newTaxFee",
          "type": "uint256"
        }
      ],
      "name": "setTaxFee",
      "outputs": [],
      "stateMutability": "nonpayable",
      "type": "function"
    },
    {
      "inputs": [
        {
          "internalType": "address",
          "name": "newTaxFeeAddress",
          "type": "address"
        }
      ],
      "name": "setTaxFeeAddress",
      "outputs": [],
      "stateMutability": "nonpayable",
      "type": "function"
    },
    {
      "inputs": [],
      "name": "symbol",
      "outputs": [
        {
          "internalType": "string",
          "name": "",
          "type": "string"
        }
      ],
      "stateMutability": "view",
      "type": "function"
    },
    {
      "inputs": [],
      "name": "taxFee",
      "outputs": [
        {
          "internalType": "uint256",
          "name": "",
          "type": "uint256"
        }
      ],
      "stateMutability": "view",
      "type": "function"
    },
    {
      "inputs": [],
      "name": "totalSupply",
      "outputs": [
        {
          "internalType": "uint256",
          "name": "",
          "type": "uint256"
        }
      ],
      "stateMutability": "view",
      "type": "function"
    },
    {
      "inputs": [
        {
          "internalType": "address",
          "name": "to",
          "type": "address"
        },
        {
          "internalType": "uint256",
          "name": "amount",
          "type": "uint256"
        }
      ],
      "name": "transfer",
      "outputs": [
        {
          "internalType": "bool",
          "name": "",
          "type": "bool"
        }
      ],
      "stateMutability": "nonpayable",
      "type": "function"
    },
    {
      "inputs": [
        {
          "internalType": "address",
          "name": "from",
          "type": "address"
        },
        {
          "internalType": "address",
          "name": "to",
          "type": "address"
        },
        {
          "internalType": "uint256",
          "name": "amount",
          "type": "uint256"
        }
      ],
      "name": "transferFrom",
      "outputs": [
        {
          "internalType": "bool",
          "name": "",
          "type": "bool"
        }
      ],
      "stateMutability": "nonpayable",
      "type": "function"
    },
    {
      "inputs": [
        {
          "internalType": "address",
          "name": "newOwner",
          "type": "address"
        }
      ],
      "name": "transferOwnership",
      "outputs": [],
      "stateMutability": "nonpayable",
      "type": "function"
    }
  ],
  "bytecode": "0x60806040523480156200001157600080fd5b5060405162002568380380620025688339810160408190526200003491620002f9565b6200003f3362000132565b6000805460ff60a01b1916905560056200005a8b8262000465565b506006620000698a8262000465565b506007805460ff191660ff8a1617905560088790556009869055600a859055600b849055600c80546001600160a01b03199081166001600160a01b0386811691909117909255600d80548216858416179055600e8054909116918316919091179055620000dd620000d73390565b62000182565b600c54620000f4906001600160a01b031662000182565b600d546200010b906001600160a01b031662000182565b600e5462000122906001600160a01b031662000182565b5050505050505050505062000531565b600080546001600160a01b038381166001600160a01b0319831681178455604051919092169283917f8be0079c531659141344cd1fd0a4f28419497f9722a3daafe3b4186f6b6457e09190a35050565b6000546001600160a01b03163314620001e15760405162461bcd60e51b815260206004820181905260248201527f4f776e61626c653a2063616c6c6572206973206e6f7420746865206f776e6572604482015260640160405180910390fd5b6001600160a01b03166000908152600f60205260409020805460ff19166001179055565b634e487b7160e01b600052604160045260246000fd5b600082601f8301126200022d57600080fd5b81516001600160401b03808211156200024a576200024a62000205565b604051601f8301601f19908116603f0116810190828211818310171562000275576200027562000205565b816040528381526020925086838588010111156200029257600080fd5b600091505b83821015620002b6578582018301518183018401529082019062000297565b600093810190920192909252949350505050565b805160ff81168114620002dc57600080fd5b919050565b80516001600160a01b0381168114620002dc57600080fd5b6000806000806000806000806000806101408b8d0312156200031a57600080fd5b8a516001600160401b03808211156200033257600080fd5b620003408e838f016200021b565b9b5060208d01519150808211156200035757600080fd5b50620003668d828e016200021b565b9950506200037760408c01620002ca565b975060608b0151965060808b0151955060a08b0151945060c08b01519350620003a360e08c01620002e1565b9250620003b46101008c01620002e1565b9150620003c56101208c01620002e1565b90509295989b9194979a5092959850565b600181811c90821680620003eb57607f821691505b6020821081036200040c57634e487b7160e01b600052602260045260246000fd5b50919050565b601f8211156200046057600081815260208120601f850160051c810160208610156200043b5750805b601f850160051c820191505b818110156200045c5782815560010162000447565b5050505b505050565b81516001600160401b0381111562000481576200048162000205565b6200049981620004928454620003d6565b8462000412565b602080601f831160018114620004d15760008415620004b85750858301515b600019600386901b1c1916600185901b1785556200045c565b600085815260208120601f198616915b828110156200050257888601518255948401946001909101908401620004e1565b5085821015620005215787850151600019600388901b60f8161c191681555b5050505050600190811b01905550565b61202780620005416000396000f3fe608060405234801561001057600080fd5b50600436106102d35760003560e01c8063715018a611610186578063c4081a4c116100e3578063ecfca89911610097578063f941456d11610071578063f941456d146105ff578063fc8234cb14610612578063fce589d81461061a57600080fd5b8063ecfca899146105d1578063f2fde38b146105d9578063f3bdc228146105ec57600080fd5b8063c8595243116100c8578063c859524314610572578063dd62ed3e14610585578063e4997dc5146105be57600080fd5b8063c4081a4c14610557578063c6a971ad1461056a57600080fd5b8063a071dcf41161013a578063a7d262da1161011f578063a7d262da14610522578063a9059cbb14610533578063bb5e14981461054657600080fd5b8063a071dcf414610507578063a457c2d71461050f57600080fd5b80639193a4bf1161016b5780639193a4bf146104c057806395d89b41146104ec57806399d896fd146104f457600080fd5b8063715018a6146104a75780638da5cb5b146104af57600080fd5b806339a10c95116102345780634e6ec247116101e85780635c975abb116101cd5780635c975abb1461045957806363d600a41461046b57806370a082311461047e57600080fd5b80634e6ec2471461041a57806359bf1abe1461042d57600080fd5b8063437823ec11610219578063437823ec146103cf57806344722d2d146103e25780634bf2c7c91461040757600080fd5b806339a10c95146103a957806342966c68146103bc57600080fd5b806320c7c5961161028b578063313ce56711610270578063313ce56714610379578063320b2ad91461038e578063395093511461039657600080fd5b806320c7c5961461035357806323b872dd1461036657600080fd5b80630ecb93c0116102bc5780630ecb93c014610319578063111a18d31461032e57806318160ddd1461034157600080fd5b806306fdde03146102d8578063095ea7b3146102f6575b600080fd5b6102e0610622565b6040516102ed9190611deb565b60405180910390f35b610309610304366004611e55565b6106b4565b60405190151581526020016102ed565b61032c610327366004611e7f565b6106ce565b005b61032c61033c366004611e55565b610805565b6004545b6040519081526020016102ed565b61032c610361366004611e9a565b610901565b610309610374366004611eb3565b61094e565b60075460405160ff90911681526020016102ed565b61032c610981565b6103096103a4366004611e55565b610a6e565b61032c6103b7366004611e7f565b610aad565b61032c6103ca366004611e9a565b610b24565b61032c6103dd366004611e7f565b610bd7565b600e546001600160a01b03165b6040516001600160a01b0390911681526020016102ed565b61032c610415366004611e9a565b610c43565b61032c610428366004611e55565b610c90565b61030961043b366004611e7f565b6001600160a01b031660009081526003602052604090205460ff1690565b600054600160a01b900460ff16610309565b61032c610479366004611e7f565b610e5d565b61034561048c366004611e7f565b6001600160a01b031660009081526001602052604090205490565b61032c610ec6565b6000546001600160a01b03166103ef565b6103096104ce366004611e7f565b6001600160a01b03166000908152600f602052604090205460ff1690565b6102e0610f1a565b61032c610502366004611e7f565b610f29565b600854610345565b61030961051d366004611e55565b610fa0565b600c546001600160a01b03166103ef565b610309610541366004611e55565b611055565b600d546001600160a01b03166103ef565b61032c610565366004611e9a565b611070565b600b54610345565b61032c610580366004611e7f565b6110bd565b610345610593366004611eef565b6001600160a01b03918216600090815260026020908152604080832093909416825291909152205490565b61032c6105cc366004611e7f565b611134565b600a54610345565b61032c6105e7366004611e7f565b611260565b61032c6105fa366004611e7f565b61132d565b61032c61060d366004611e9a565b611416565b61032c611463565b600954610345565b60606005805461063190611f22565b80601f016020809104026020016040519081016040528092919081815260200182805461065d90611f22565b80156106aa5780601f1061067f576101008083540402835291602001916106aa565b820191906000526020600020905b81548152906001019060200180831161068d57829003601f168201915b5050505050905090565b6000336106c2818585611538565b60019150505b92915050565b6000546001600160a01b0316331461071b5760405162461bcd60e51b81526020600482018190526024820152600080516020611fd283398151915260448201526064015b60405180910390fd5b6001600160a01b03811660009081526003602052604090205460ff16156107aa5760405162461bcd60e51b815260206004820152602960248201527f54686973206163636f756e742068617320616c7265616479206265656e20626c60448201527f61636b6c697374656400000000000000000000000000000000000000000000006064820152608401610712565b6001600160a01b038116600081815260036020908152604091829020805460ff1916600117905590519182527f42e160154868087d6bfdc0ca23d96a1c1cfa32f1b72ba9ba27b69b98a0d819dc91015b60405180910390a150565b6000546001600160a01b0316331461084d5760405162461bcd60e51b81526020600482018190526024820152600080516020611fd28339815191526044820152606401610712565b3360009081526003602052604090205460ff16156108a65760405162461bcd60e51b815260206004820152601660248201527529b2b73232b91034b990313630b1b5b634b9ba32b21760511b6044820152606401610712565b600054600160a01b900460ff16156108f35760405162461bcd60e51b815260206004820152601060248201526f14185d5cd8589b194e881c185d5cd95960821b6044820152606401610712565b6108fd82826116de565b5050565b6000546001600160a01b031633146109495760405162461bcd60e51b81526020600482018190526024820152600080516020611fd28339815191526044820152606401610712565b600a55565b60003361095c858285611901565b60006109688685611993565b9050610975868683611aa6565b50600195945050505050565b6000546001600160a01b031633146109c95760405162461bcd60e51b81526020600482018190526024820152600080516020611fd28339815191526044820152606401610712565b600054600160a01b900460ff1615610a165760405162461bcd60e51b815260206004820152601060248201526f14185d5cd8589b194e881c185d5cd95960821b6044820152606401610712565b6000805460ff60a01b1916600160a01b1790557f62e78cea01bee320cd4e420270b5ea74000d11b0c9f74754ebdbfc544b05a258610a513390565b6040516001600160a01b03909116815260200160405180910390a1565b3360008181526002602090815260408083206001600160a01b03871684529091528120549091906106c29082908690610aa8908790611f72565b611538565b6000546001600160a01b03163314610af55760405162461bcd60e51b81526020600482018190526024820152600080516020611fd28339815191526044820152606401610712565b600e805473ffffffffffffffffffffffffffffffffffffffff19166001600160a01b0392909216919091179055565b3360009081526003602052604090205460ff1615610b7d5760405162461bcd60e51b815260206004820152601660248201527529b2b73232b91034b990313630b1b5b634b9ba32b21760511b6044820152606401610712565b600054600160a01b900460ff1615610bca5760405162461bcd60e51b815260206004820152601060248201526f14185d5cd8589b194e881c185d5cd95960821b6044820152606401610712565b610bd433826116de565b50565b6000546001600160a01b03163314610c1f5760405162461bcd60e51b81526020600482018190526024820152600080516020611fd28339815191526044820152606401610712565b6001600160a01b03166000908152600f60205260409020805460ff19166001179055565b6000546001600160a01b03163314610c8b5760405162461bcd60e51b81526020600482018190526024820152600080516020611fd28339815191526044820152606401610712565b600955565b6000546001600160a01b03163314610cd85760405162461bcd60e51b81526020600482018190526024820152600080516020611fd28339815191526044820152606401610712565b3360009081526003602052604090205460ff1615610d315760405162461bcd60e51b815260206004820152601660248201527529b2b73232b91034b990313630b1b5b634b9ba32b21760511b6044820152606401610712565b600054600160a01b900460ff1615610d7e5760405162461bcd60e51b815260206004820152601060248201526f14185d5cd8589b194e881c185d5cd95960821b6044820152606401610712565b6001600160a01b038216610dd45760405162461bcd60e51b815260206004820152601f60248201527f45524332303a206d696e7420746f20746865207a65726f2061646472657373006044820152606401610712565b8060046000828254610de69190611f72565b90915550506001600160a01b03821660009081526001602052604081208054839290610e13908490611f72565b90915550506040518181526001600160a01b038316906000907fddf252ad1be2c89b69c2b068fc378daa952ba7f163c4a11628f55a4df523b3ef9060200160405180910390a35050565b6000546001600160a01b03163314610ea55760405162461bcd60e51b81526020600482018190526024820152600080516020611fd28339815191526044820152606401610712565b6001600160a01b03166000908152600f60205260409020805460ff19169055565b6000546001600160a01b03163314610f0e5760405162461bcd60e51b81526020600482018190526024820152600080516020611fd28339815191526044820152606401610712565b610f186000611d63565b565b60606006805461063190611f22565b6000546001600160a01b03163314610f715760405162461bcd60e51b81526020600482018190526024820152600080516020611fd28339815191526044820152606401610712565b600c805473ffffffffffffffffffffffffffffffffffffffff19166001600160a01b0392909216919091179055565b3360008181526002602090815260408083206001600160a01b03871684529091528120549091908381101561103d5760405162461bcd60e51b815260206004820152602560248201527f45524332303a2064656372656173656420616c6c6f77616e63652062656c6f7760448201527f207a65726f0000000000000000000000000000000000000000000000000000006064820152608401610712565b61104a8286868403611538565b506001949350505050565b600033816110638285611993565b905061104a828683611aa6565b6000546001600160a01b031633146110b85760405162461bcd60e51b81526020600482018190526024820152600080516020611fd28339815191526044820152606401610712565b600855565b6000546001600160a01b031633146111055760405162461bcd60e51b81526020600482018190526024820152600080516020611fd28339815191526044820152606401610712565b600d805473ffffffffffffffffffffffffffffffffffffffff19166001600160a01b0392909216919091179055565b6000546001600160a01b0316331461117c5760405162461bcd60e51b81526020600482018190526024820152600080516020611fd28339815191526044820152606401610712565b6001600160a01b03811660009081526003602052604090205460ff16151560011461120f5760405162461bcd60e51b815260206004820152602960248201527f54686973206163636f756e742068617320616c7265616479206265656e20776860448201527f6974656c697374656400000000000000000000000000000000000000000000006064820152608401610712565b6001600160a01b038116600081815260036020908152604091829020805460ff1916905590519182527fd7e9ec6e6ecd65492dce6bf513cd6867560d49544421d0783ddf06e76c24470c91016107fa565b6000546001600160a01b031633146112a85760405162461bcd60e51b81526020600482018190526024820152600080516020611fd28339815191526044820152606401610712565b6001600160a01b0381166113245760405162461bcd60e51b815260206004820152602660248201527f4f776e61626c653a206e6577206f776e657220697320746865207a65726f206160448201527f64647265737300000000000000000000000000000000000000000000000000006064820152608401610712565b610bd481611d63565b6000546001600160a01b031633146113755760405162461bcd60e51b81526020600482018190526024820152600080516020611fd28339815191526044820152606401610712565b6001600160a01b03811660009081526003602052604090205460ff1661139a57600080fd5b6001600160a01b038116600090815260016020526040812080549082905560048054919283926113cb908490611f85565b9091555050604080516001600160a01b0384168152602081018390527f61e6e66b0d6339b2980aecc6ccc0039736791f0ccde9ed512e789a7fbdd698c6910160405180910390a15050565b6000546001600160a01b0316331461145e5760405162461bcd60e51b81526020600482018190526024820152600080516020611fd28339815191526044820152606401610712565b600b55565b6000546001600160a01b031633146114ab5760405162461bcd60e51b81526020600482018190526024820152600080516020611fd28339815191526044820152606401610712565b600054600160a01b900460ff166115045760405162461bcd60e51b815260206004820152601460248201527f5061757361626c653a206e6f74207061757365640000000000000000000000006044820152606401610712565b6000805460ff60a01b191690557f5db9ee0a495bf2e6ff9c91a7834c1ba4fdd244a5e8aa4e537bd38aeae4b073aa33610a51565b600054600160a01b900460ff16156115855760405162461bcd60e51b815260206004820152601060248201526f14185d5cd8589b194e881c185d5cd95960821b6044820152606401610712565b6001600160a01b0383166116005760405162461bcd60e51b8152602060048201526024808201527f45524332303a20617070726f76652066726f6d20746865207a65726f2061646460448201527f72657373000000000000000000000000000000000000000000000000000000006064820152608401610712565b6001600160a01b03821661167c5760405162461bcd60e51b815260206004820152602260248201527f45524332303a20617070726f766520746f20746865207a65726f20616464726560448201527f73730000000000000000000000000000000000000000000000000000000000006064820152608401610712565b6001600160a01b0383811660008181526002602090815260408083209487168084529482529182902085905590518481527f8c5be1e5ebec7d5bd14f71427d1e84f3dd0314c0f7b2291e5b200ac8c7c3b92591015b60405180910390a3505050565b3360009081526003602052604090205460ff16156117375760405162461bcd60e51b815260206004820152601660248201527529b2b73232b91034b990313630b1b5b634b9ba32b21760511b6044820152606401610712565b600054600160a01b900460ff16156117845760405162461bcd60e51b815260206004820152601060248201526f14185d5cd8589b194e881c185d5cd95960821b6044820152606401610712565b6001600160a01b0382166118005760405162461bcd60e51b815260206004820152602160248201527f45524332303a206275726e2066726f6d20746865207a65726f2061646472657360448201527f73000000000000000000000000000000000000000000000000000000000000006064820152608401610712565b6001600160a01b0382166000908152600160205260409020548181101561188f5760405162461bcd60e51b815260206004820152602260248201527f45524332303a206275726e20616d6f756e7420657863656564732062616c616e60448201527f63650000000000000000000000000000000000000000000000000000000000006064820152608401610712565b6001600160a01b03831660009081526001602052604081208383039055600480548492906118be908490611f85565b90915550506040518281526000906001600160a01b038516907fddf252ad1be2c89b69c2b068fc378daa952ba7f163c4a11628f55a4df523b3ef906020016116d1565b6001600160a01b03838116600090815260026020908152604080832093861683529290522054600019811461198d57818110156119805760405162461bcd60e51b815260206004820152601d60248201527f45524332303a20696e73756666696369656e7420616c6c6f77616e63650000006044820152606401610712565b61198d8484848403611538565b50505050565b6001600160a01b0382166000908152600f602052604081205460ff16156119bb5750806106c8565b60006119db60646119d56119ce60085490565b8690611dc0565b90611dd3565b905060006119f760646119d56119f060095490565b8790611dc0565b90506000611a1360646119d5611a0c600a5490565b8890611dc0565b90506000611a2f60646119d5611a28600b5490565b8990611dc0565b9050611a3b878461084d565b600c54611a539088906001600160a01b031686611aa6565b600d54611a6b9088906001600160a01b031684611aa6565b600e54611a839088906001600160a01b031683611aa6565b611a9b81611a95848187818c8b611ddf565b90611ddf565b979650505050505050565b3360009081526003602052604090205460ff1615611aff5760405162461bcd60e51b815260206004820152601660248201527529b2b73232b91034b990313630b1b5b634b9ba32b21760511b6044820152606401610712565b600054600160a01b900460ff1615611b4c5760405162461bcd60e51b815260206004820152601060248201526f14185d5cd8589b194e881c185d5cd95960821b6044820152606401610712565b6001600160a01b038316611bc85760405162461bcd60e51b815260206004820152602560248201527f45524332303a207472616e736665722066726f6d20746865207a65726f20616460448201527f64726573730000000000000000000000000000000000000000000000000000006064820152608401610712565b6001600160a01b038216611c445760405162461bcd60e51b815260206004820152602360248201527f45524332303a207472616e7366657220746f20746865207a65726f206164647260448201527f65737300000000000000000000000000000000000000000000000000000000006064820152608401610712565b6001600160a01b03831660009081526001602052604090205481811015611cd35760405162461bcd60e51b815260206004820152602660248201527f45524332303a207472616e7366657220616d6f756e742065786365656473206260448201527f616c616e636500000000000000000000000000000000000000000000000000006064820152608401610712565b6001600160a01b03808516600090815260016020526040808220858503905591851681529081208054849290611d0a908490611f72565b92505081905550826001600160a01b0316846001600160a01b03167fddf252ad1be2c89b69c2b068fc378daa952ba7f163c4a11628f55a4df523b3ef84604051611d5691815260200190565b60405180910390a361198d565b600080546001600160a01b0383811673ffffffffffffffffffffffffffffffffffffffff19831681178455604051919092169283917f8be0079c531659141344cd1fd0a4f28419497f9722a3daafe3b4186f6b6457e09190a35050565b6000611dcc8284611f98565b9392505050565b6000611dcc8284611faf565b6000611dcc8284611f85565b600060208083528351808285015260005b81811015611e1857858101830151858201604001528201611dfc565b506000604082860101526040601f19601f8301168501019250505092915050565b80356001600160a01b0381168114611e5057600080fd5b919050565b60008060408385031215611e6857600080fd5b611e7183611e39565b946020939093013593505050565b600060208284031215611e9157600080fd5b611dcc82611e39565b600060208284031215611eac57600080fd5b5035919050565b600080600060608486031215611ec857600080fd5b611ed184611e39565b9250611edf60208501611e39565b9150604084013590509250925092565b60008060408385031215611f0257600080fd5b611f0b83611e39565b9150611f1960208401611e39565b90509250929050565b600181811c90821680611f3657607f821691505b602082108103611f5657634e487b7160e01b600052602260045260246000fd5b50919050565b634e487b7160e01b600052601160045260246000fd5b808201808211156106c8576106c8611f5c565b818103818111156106c8576106c8611f5c565b80820281158282048414176106c8576106c8611f5c565b600082611fcc57634e487b7160e01b600052601260045260246000fd5b50049056fe4f776e61626c653a2063616c6c6572206973206e6f7420746865206f776e6572a2646970667358221220c54b94b543bd80ad68d0f937a7a7b8031d1176ce4cc3be2c32f01954a39f403264736f6c63430008110033",
  "linkReferences": {},
  "deployedLinkReferences": {}
}